{
  "_format": "hh-sol-artifact-1",
  "contractName": "BroccoliUnchainedTest",
  "sourceName": "contracts/BroccoliUnchainedTest.sol",
  "abi": [
    {
      "inputs": [],
      "stateMutability": "nonpayable",
      "type": "constructor"
    },
    {
      "inputs": [],
      "name": "ECDSAInvalidSignature",
      "type": "error"
    },
    {
      "inputs": [
        {
          "internalType": "uint256",
          "name": "length",
          "type": "uint256"
        }
      ],
      "name": "ECDSAInvalidSignatureLength",
      "type": "error"
    },
    {
      "inputs": [
        {
          "internalType": "bytes32",
          "name": "s",
          "type": "bytes32"
        }
      ],
      "name": "ECDSAInvalidSignatureS",
      "type": "error"
    },
    {
      "inputs": [
        {
          "internalType": "address",
          "name": "spender",
          "type": "address"
        },
        {
          "internalType": "uint256",
          "name": "allowance",
          "type": "uint256"
        },
        {
          "internalType": "uint256",
          "name": "needed",
          "type": "uint256"
        }
      ],
      "name": "ERC20InsufficientAllowance",
      "type": "error"
    },
    {
      "inputs": [
        {
          "internalType": "address",
          "name": "sender",
          "type": "address"
        },
        {
          "internalType": "uint256",
          "name": "balance",
          "type": "uint256"
        },
        {
          "internalType": "uint256",
          "name": "needed",
          "type": "uint256"
        }
      ],
      "name": "ERC20InsufficientBalance",
      "type": "error"
    },
    {
      "inputs": [
        {
          "internalType": "address",
          "name": "approver",
          "type": "address"
        }
      ],
      "name": "ERC20InvalidApprover",
      "type": "error"
    },
    {
      "inputs": [
        {
          "internalType": "address",
          "name": "receiver",
          "type": "address"
        }
      ],
      "name": "ERC20InvalidReceiver",
      "type": "error"
    },
    {
      "inputs": [
        {
          "internalType": "address",
          "name": "sender",
          "type": "address"
        }
      ],
      "name": "ERC20InvalidSender",
      "type": "error"
    },
    {
      "inputs": [
        {
          "internalType": "address",
          "name": "spender",
          "type": "address"
        }
      ],
      "name": "ERC20InvalidSpender",
      "type": "error"
    },
    {
      "inputs": [
        {
          "internalType": "uint256",
          "name": "deadline",
          "type": "uint256"
        }
      ],
      "name": "ERC2612ExpiredSignature",
      "type": "error"
    },
    {
      "inputs": [
        {
          "internalType": "address",
          "name": "signer",
          "type": "address"
        },
        {
          "internalType": "address",
          "name": "owner",
          "type": "address"
        }
      ],
      "name": "ERC2612InvalidSigner",
      "type": "error"
    },
    {
      "inputs": [
        {
          "internalType": "uint256",
          "name": "maxLoan",
          "type": "uint256"
        }
      ],
      "name": "ERC3156ExceededMaxLoan",
      "type": "error"
    },
    {
      "inputs": [
        {
          "internalType": "address",
          "name": "receiver",
          "type": "address"
        }
      ],
      "name": "ERC3156InvalidReceiver",
      "type": "error"
    },
    {
      "inputs": [
        {
          "internalType": "address",
          "name": "token",
          "type": "address"
        }
      ],
      "name": "ERC3156UnsupportedToken",
      "type": "error"
    },
    {
      "inputs": [
        {
          "internalType": "address",
          "name": "account",
          "type": "address"
        },
        {
          "internalType": "uint256",
          "name": "currentNonce",
          "type": "uint256"
        }
      ],
      "name": "InvalidAccountNonce",
      "type": "error"
    },
    {
      "inputs": [],
      "name": "InvalidShortString",
      "type": "error"
    },
    {
      "inputs": [
        {
          "internalType": "string",
          "name": "str",
          "type": "string"
        }
      ],
      "name": "StringTooLong",
      "type": "error"
    },
    {
      "inputs": [],
      "name": "Unauthorized",
      "type": "error"
    },
    {
      "anonymous": false,
      "inputs": [
        {
          "indexed": true,
          "internalType": "address",
          "name": "owner",
          "type": "address"
        },
        {
          "indexed": true,
          "internalType": "address",
          "name": "spender",
          "type": "address"
        },
        {
          "indexed": false,
          "internalType": "uint256",
          "name": "value",
          "type": "uint256"
        }
      ],
      "name": "Approval",
      "type": "event"
    },
    {
      "anonymous": false,
      "inputs": [
        {
          "indexed": false,
          "internalType": "uint256",
          "name": "amount",
          "type": "uint256"
        },
        {
          "indexed": false,
          "internalType": "address",
          "name": "owner",
          "type": "address"
        },
        {
          "indexed": false,
          "internalType": "uint16",
          "name": "sourceChain",
          "type": "uint16"
        }
      ],
      "name": "CrossChainReceived",
      "type": "event"
    },
    {
      "anonymous": false,
      "inputs": [
        {
          "indexed": true,
          "internalType": "address",
          "name": "from",
          "type": "address"
        },
        {
          "indexed": false,
          "internalType": "uint256",
          "name": "amount",
          "type": "uint256"
        },
        {
          "indexed": true,
          "internalType": "address",
          "name": "sender",
          "type": "address"
        }
      ],
      "name": "CrosschainBurn",
      "type": "event"
    },
    {
      "anonymous": false,
      "inputs": [
        {
          "indexed": true,
          "internalType": "address",
          "name": "to",
          "type": "address"
        },
        {
          "indexed": false,
          "internalType": "uint256",
          "name": "amount",
          "type": "uint256"
        },
        {
          "indexed": true,
          "internalType": "address",
          "name": "sender",
          "type": "address"
        }
      ],
      "name": "CrosschainMint",
      "type": "event"
    },
    {
      "anonymous": false,
      "inputs": [
        {
          "indexed": false,
          "internalType": "uint256",
          "name": "newTarget",
          "type": "uint256"
        },
        {
          "indexed": false,
          "internalType": "uint256",
          "name": "newDifficulty",
          "type": "uint256"
        },
        {
          "indexed": false,
          "internalType": "uint256",
          "name": "ethBlocksSinceLastDifficultyPeriod",
          "type": "uint256"
        }
      ],
      "name": "DifficultyAdjusted",
      "type": "event"
    },
    {
      "anonymous": false,
      "inputs": [],
      "name": "EIP712DomainChanged",
      "type": "event"
    },
    {
      "anonymous": false,
      "inputs": [
        {
          "indexed": true,
          "internalType": "address",
          "name": "from",
          "type": "address"
        },
        {
          "indexed": false,
          "internalType": "uint256",
          "name": "rewardAmount",
          "type": "uint256"
        },
        {
          "indexed": false,
          "internalType": "uint256",
          "name": "epochCount",
          "type": "uint256"
        },
        {
          "indexed": false,
          "internalType": "bytes32",
          "name": "newChallengeNumber",
          "type": "bytes32"
        }
      ],
      "name": "Mint",
      "type": "event"
    },
    {
      "anonymous": false,
      "inputs": [
        {
          "indexed": false,
          "internalType": "uint256",
          "name": "epochCount",
          "type": "uint256"
        },
        {
          "indexed": false,
          "internalType": "bytes32",
          "name": "challengeNumber",
          "type": "bytes32"
        }
      ],
      "name": "NewEpochStarted",
      "type": "event"
    },
    {
      "anonymous": false,
      "inputs": [
        {
          "indexed": false,
          "internalType": "uint256",
          "name": "newReward",
          "type": "uint256"
        },
        {
          "indexed": false,
          "internalType": "uint256",
          "name": "rewardEra",
          "type": "uint256"
        }
      ],
      "name": "RewardUpdated",
      "type": "event"
    },
    {
      "anonymous": false,
      "inputs": [
        {
          "indexed": true,
          "internalType": "address",
          "name": "from",
          "type": "address"
        },
        {
          "indexed": true,
          "internalType": "address",
          "name": "to",
          "type": "address"
        },
        {
          "indexed": false,
          "internalType": "uint256",
          "name": "value",
          "type": "uint256"
        }
      ],
      "name": "Transfer",
      "type": "event"
    },
    {
      "inputs": [],
      "name": "DOMAIN_SEPARATOR",
      "outputs": [
        {
          "internalType": "bytes32",
          "name": "",
          "type": "bytes32"
        }
      ],
      "stateMutability": "view",
      "type": "function"
    },
    {
      "inputs": [],
      "name": "HALVING_PERIOD",
      "outputs": [
        {
          "internalType": "uint256",
          "name": "",
          "type": "uint256"
        }
      ],
      "stateMutability": "view",
      "type": "function"
    },
    {
      "inputs": [],
      "name": "MAX_LIMIT",
      "outputs": [
        {
          "internalType": "uint256",
          "name": "",
          "type": "uint256"
        }
      ],
      "stateMutability": "view",
      "type": "function"
    },
    {
      "inputs": [],
      "name": "_BLOCKS_PER_READJUSTMENT",
      "outputs": [
        {
          "internalType": "uint256",
          "name": "",
          "type": "uint256"
        }
      ],
      "stateMutability": "view",
      "type": "function"
    },
    {
      "inputs": [],
      "name": "_MAXIMUM_TARGET",
      "outputs": [
        {
          "internalType": "uint256",
          "name": "",
          "type": "uint256"
        }
      ],
      "stateMutability": "view",
      "type": "function"
    },
    {
      "inputs": [],
      "name": "_MINIMUM_TARGET",
      "outputs": [
        {
          "internalType": "uint256",
          "name": "",
          "type": "uint256"
        }
      ],
      "stateMutability": "view",
      "type": "function"
    },
    {
      "inputs": [
        {
          "internalType": "address",
          "name": "owner",
          "type": "address"
        },
        {
          "internalType": "address",
          "name": "spender",
          "type": "address"
        }
      ],
      "name": "allowance",
      "outputs": [
        {
          "internalType": "uint256",
          "name": "",
          "type": "uint256"
        }
      ],
      "stateMutability": "view",
      "type": "function"
    },
    {
      "inputs": [
        {
          "internalType": "uint256",
          "name": "",
          "type": "uint256"
        }
      ],
      "name": "allowedChains",
      "outputs": [
        {
          "internalType": "bool",
          "name": "",
          "type": "bool"
        }
      ],
      "stateMutability": "view",
      "type": "function"
    },
    {
      "inputs": [
        {
          "internalType": "address",
          "name": "spender",
          "type": "address"
        },
        {
          "internalType": "uint256",
          "name": "value",
          "type": "uint256"
        }
      ],
      "name": "approve",
      "outputs": [
        {
          "internalType": "bool",
          "name": "",
          "type": "bool"
        }
      ],
      "stateMutability": "nonpayable",
      "type": "function"
    },
    {
      "inputs": [
        {
          "internalType": "address",
          "name": "account",
          "type": "address"
        }
      ],
      "name": "balanceOf",
      "outputs": [
        {
          "internalType": "uint256",
          "name": "",
          "type": "uint256"
        }
      ],
      "stateMutability": "view",
      "type": "function"
    },
    {
      "inputs": [
        {
          "internalType": "uint256",
          "name": "value",
          "type": "uint256"
        }
      ],
      "name": "burn",
      "outputs": [],
      "stateMutability": "nonpayable",
      "type": "function"
    },
    {
      "inputs": [
        {
          "internalType": "address",
          "name": "account",
          "type": "address"
        },
        {
          "internalType": "uint256",
          "name": "value",
          "type": "uint256"
        }
      ],
      "name": "burnFrom",
      "outputs": [],
      "stateMutability": "nonpayable",
      "type": "function"
    },
    {
      "inputs": [],
      "name": "challengeNumber",
      "outputs": [
        {
          "internalType": "bytes32",
          "name": "",
          "type": "bytes32"
        }
      ],
      "stateMutability": "view",
      "type": "function"
    },
    {
      "inputs": [
        {
          "internalType": "address",
          "name": "_from",
          "type": "address"
        },
        {
          "internalType": "uint256",
          "name": "_amount",
          "type": "uint256"
        }
      ],
      "name": "crosschainBurn",
      "outputs": [],
      "stateMutability": "nonpayable",
      "type": "function"
    },
    {
      "inputs": [
        {
          "internalType": "address",
          "name": "_to",
          "type": "address"
        },
        {
          "internalType": "uint256",
          "name": "_amount",
          "type": "uint256"
        }
      ],
      "name": "crosschainMint",
      "outputs": [],
      "stateMutability": "nonpayable",
      "type": "function"
    },
    {
      "inputs": [],
      "name": "currentMiningReward",
      "outputs": [
        {
          "internalType": "uint256",
          "name": "",
          "type": "uint256"
        }
      ],
      "stateMutability": "view",
      "type": "function"
    },
    {
      "inputs": [],
      "name": "decimals",
      "outputs": [
        {
          "internalType": "uint8",
          "name": "",
          "type": "uint8"
        }
      ],
      "stateMutability": "view",
      "type": "function"
    },
    {
      "inputs": [],
      "name": "eip712Domain",
      "outputs": [
        {
          "internalType": "bytes1",
          "name": "fields",
          "type": "bytes1"
        },
        {
          "internalType": "string",
          "name": "name",
          "type": "string"
        },
        {
          "internalType": "string",
          "name": "version",
          "type": "string"
        },
        {
          "internalType": "uint256",
          "name": "chainId",
          "type": "uint256"
        },
        {
          "internalType": "address",
          "name": "verifyingContract",
          "type": "address"
        },
        {
          "internalType": "bytes32",
          "name": "salt",
          "type": "bytes32"
        },
        {
          "internalType": "uint256[]",
          "name": "extensions",
          "type": "uint256[]"
        }
      ],
      "stateMutability": "view",
      "type": "function"
    },
    {
      "inputs": [],
      "name": "epochCount",
      "outputs": [
        {
          "internalType": "uint256",
          "name": "",
          "type": "uint256"
        }
      ],
      "stateMutability": "view",
      "type": "function"
    },
    {
      "inputs": [],
      "name": "faucetAmount",
      "outputs": [
        {
          "internalType": "uint256",
          "name": "",
          "type": "uint256"
        }
      ],
      "stateMutability": "view",
      "type": "function"
    },
    {
      "inputs": [],
      "name": "faucetCooldown",
      "outputs": [
        {
          "internalType": "uint256",
          "name": "",
          "type": "uint256"
        }
      ],
      "stateMutability": "view",
      "type": "function"
    },
    {
      "inputs": [],
      "name": "faucetMint",
      "outputs": [
        {
          "internalType": "bool",
          "name": "success",
          "type": "bool"
        }
      ],
      "stateMutability": "nonpayable",
      "type": "function"
    },
    {
      "inputs": [
        {
          "internalType": "address",
          "name": "token",
          "type": "address"
        },
        {
          "internalType": "uint256",
          "name": "value",
          "type": "uint256"
        }
      ],
      "name": "flashFee",
      "outputs": [
        {
          "internalType": "uint256",
          "name": "",
          "type": "uint256"
        }
      ],
      "stateMutability": "view",
      "type": "function"
    },
    {
      "inputs": [
        {
          "internalType": "contract IERC3156FlashBorrower",
          "name": "receiver",
          "type": "address"
        },
        {
          "internalType": "address",
          "name": "token",
          "type": "address"
        },
        {
          "internalType": "uint256",
          "name": "value",
          "type": "uint256"
        },
        {
          "internalType": "bytes",
          "name": "data",
          "type": "bytes"
        }
      ],
      "name": "flashLoan",
      "outputs": [
        {
          "internalType": "bool",
          "name": "",
          "type": "bool"
        }
      ],
      "stateMutability": "nonpayable",
      "type": "function"
    },
    {
      "inputs": [],
      "name": "getChallengeNumber",
      "outputs": [
        {
          "internalType": "bytes32",
          "name": "",
          "type": "bytes32"
        }
      ],
      "stateMutability": "view",
      "type": "function"
    },
    {
      "inputs": [],
      "name": "getMiningDifficulty",
      "outputs": [
        {
          "internalType": "uint256",
          "name": "",
          "type": "uint256"
        }
      ],
      "stateMutability": "view",
      "type": "function"
    },
    {
      "inputs": [],
      "name": "getMiningTarget",
      "outputs": [
        {
          "internalType": "uint256",
          "name": "",
          "type": "uint256"
        }
      ],
      "stateMutability": "view",
      "type": "function"
    },
    {
      "inputs": [
        {
          "internalType": "address",
          "name": "",
          "type": "address"
        }
      ],
      "name": "lastFaucetClaim",
      "outputs": [
        {
          "internalType": "uint256",
          "name": "",
          "type": "uint256"
        }
      ],
      "stateMutability": "view",
      "type": "function"
    },
    {
      "inputs": [],
      "name": "lastRewardAmount",
      "outputs": [
        {
          "internalType": "uint256",
          "name": "",
          "type": "uint256"
        }
      ],
      "stateMutability": "view",
      "type": "function"
    },
    {
      "inputs": [],
      "name": "lastRewardEthBlockNumber",
      "outputs": [
        {
          "internalType": "uint256",
          "name": "",
          "type": "uint256"
        }
      ],
      "stateMutability": "view",
      "type": "function"
    },
    {
      "inputs": [],
      "name": "lastRewardTo",
      "outputs": [
        {
          "internalType": "address",
          "name": "",
          "type": "address"
        }
      ],
      "stateMutability": "view",
      "type": "function"
    },
    {
      "inputs": [],
      "name": "latestDifficultyPeriodStarted",
      "outputs": [
        {
          "internalType": "uint256",
          "name": "",
          "type": "uint256"
        }
      ],
      "stateMutability": "view",
      "type": "function"
    },
    {
      "inputs": [
        {
          "internalType": "address",
          "name": "token",
          "type": "address"
        }
      ],
      "name": "maxFlashLoan",
      "outputs": [
        {
          "internalType": "uint256",
          "name": "",
          "type": "uint256"
        }
      ],
      "stateMutability": "view",
      "type": "function"
    },
    {
      "inputs": [],
      "name": "minedSupply",
      "outputs": [
        {
          "internalType": "uint256",
          "name": "",
          "type": "uint256"
        }
      ],
      "stateMutability": "view",
      "type": "function"
    },
    {
      "inputs": [],
      "name": "miningTarget",
      "outputs": [
        {
          "internalType": "uint256",
          "name": "",
          "type": "uint256"
        }
      ],
      "stateMutability": "view",
      "type": "function"
    },
    {
      "inputs": [
        {
          "internalType": "uint256",
          "name": "nonce",
          "type": "uint256"
        },
        {
          "internalType": "bytes32",
          "name": "",
          "type": "bytes32"
        }
      ],
      "name": "mint",
      "outputs": [
        {
          "internalType": "bool",
          "name": "success",
          "type": "bool"
        }
      ],
      "stateMutability": "nonpayable",
      "type": "function"
    },
    {
      "inputs": [
        {
          "internalType": "uint256",
          "name": "nonce",
          "type": "uint256"
        },
        {
          "internalType": "address",
          "name": "minter",
          "type": "address"
        }
      ],
      "name": "mintTo",
      "outputs": [
        {
          "internalType": "bool",
          "name": "success",
          "type": "bool"
        }
      ],
      "stateMutability": "nonpayable",
      "type": "function"
    },
    {
      "inputs": [],
      "name": "name",
      "outputs": [
        {
          "internalType": "string",
          "name": "",
          "type": "string"
        }
      ],
      "stateMutability": "view",
      "type": "function"
    },
    {
      "inputs": [],
      "name": "nextHalvingTime",
      "outputs": [
        {
          "internalType": "uint256",
          "name": "",
          "type": "uint256"
        }
      ],
      "stateMutability": "view",
      "type": "function"
    },
    {
      "inputs": [
        {
          "internalType": "address",
          "name": "owner",
          "type": "address"
        }
      ],
      "name": "nonces",
      "outputs": [
        {
          "internalType": "uint256",
          "name": "",
          "type": "uint256"
        }
      ],
      "stateMutability": "view",
      "type": "function"
    },
    {
      "inputs": [
        {
          "internalType": "address",
          "name": "owner",
          "type": "address"
        },
        {
          "internalType": "address",
          "name": "spender",
          "type": "address"
        },
        {
          "internalType": "uint256",
          "name": "value",
          "type": "uint256"
        },
        {
          "internalType": "uint256",
          "name": "deadline",
          "type": "uint256"
        },
        {
          "internalType": "uint8",
          "name": "v",
          "type": "uint8"
        },
        {
          "internalType": "bytes32",
          "name": "r",
          "type": "bytes32"
        },
        {
          "internalType": "bytes32",
          "name": "s",
          "type": "bytes32"
        }
      ],
      "name": "permit",
      "outputs": [],
      "stateMutability": "nonpayable",
      "type": "function"
    },
    {
      "inputs": [
        {
          "internalType": "uint16",
          "name": "targetChain",
          "type": "uint16"
        }
      ],
      "name": "quoteWormholeCrossChainCost",
      "outputs": [
        {
          "internalType": "uint256",
          "name": "cost",
          "type": "uint256"
        }
      ],
      "stateMutability": "view",
      "type": "function"
    },
    {
      "inputs": [
        {
          "internalType": "bytes",
          "name": "payload",
          "type": "bytes"
        },
        {
          "internalType": "bytes[]",
          "name": "",
          "type": "bytes[]"
        },
        {
          "internalType": "bytes32",
          "name": "sourceAddress",
          "type": "bytes32"
        },
        {
          "internalType": "uint16",
          "name": "sourceChain",
          "type": "uint16"
        },
        {
          "internalType": "bytes32",
          "name": "",
          "type": "bytes32"
        }
      ],
      "name": "receiveWormholeMessages",
      "outputs": [],
      "stateMutability": "payable",
      "type": "function"
    },
    {
      "inputs": [],
      "name": "rewardEra",
      "outputs": [
        {
          "internalType": "uint256",
          "name": "",
          "type": "uint256"
        }
      ],
      "stateMutability": "view",
      "type": "function"
    },
    {
      "inputs": [
        {
          "internalType": "uint16",
          "name": "targetChain",
          "type": "uint16"
        },
        {
          "internalType": "uint256",
          "name": "amount",
          "type": "uint256"
        }
      ],
      "name": "sendWormholeCrossChainBridge",
      "outputs": [],
      "stateMutability": "payable",
      "type": "function"
    },
    {
      "inputs": [
        {
          "internalType": "bytes4",
          "name": "_interfaceId",
          "type": "bytes4"
        }
      ],
      "name": "supportsInterface",
      "outputs": [
        {
          "internalType": "bool",
          "name": "",
          "type": "bool"
        }
      ],
      "stateMutability": "view",
      "type": "function"
    },
    {
      "inputs": [],
      "name": "symbol",
      "outputs": [
        {
          "internalType": "string",
          "name": "",
          "type": "string"
        }
      ],
      "stateMutability": "view",
      "type": "function"
    },
    {
      "inputs": [],
      "name": "tokensMinted",
      "outputs": [
        {
          "internalType": "uint256",
          "name": "",
          "type": "uint256"
        }
      ],
      "stateMutability": "view",
      "type": "function"
    },
    {
      "inputs": [],
      "name": "totalSupply",
      "outputs": [
        {
          "internalType": "uint256",
          "name": "",
          "type": "uint256"
        }
      ],
      "stateMutability": "view",
      "type": "function"
    },
    {
      "inputs": [
        {
          "internalType": "address",
          "name": "to",
          "type": "address"
        },
        {
          "internalType": "uint256",
          "name": "value",
          "type": "uint256"
        }
      ],
      "name": "transfer",
      "outputs": [
        {
          "internalType": "bool",
          "name": "",
          "type": "bool"
        }
      ],
      "stateMutability": "nonpayable",
      "type": "function"
    },
    {
      "inputs": [
        {
          "internalType": "address",
          "name": "from",
          "type": "address"
        },
        {
          "internalType": "address",
          "name": "to",
          "type": "address"
        },
        {
          "internalType": "uint256",
          "name": "value",
          "type": "uint256"
        }
      ],
      "name": "transferFrom",
      "outputs": [
        {
          "internalType": "bool",
          "name": "",
          "type": "bool"
        }
      ],
      "stateMutability": "nonpayable",
      "type": "function"
    },
    {
      "inputs": [],
      "name": "wormholeRelayer",
      "outputs": [
        {
          "internalType": "contract IWormholeRelayer",
          "name": "",
          "type": "address"
        }
      ],
      "stateMutability": "view",
      "type": "function"
    },
    {
      "stateMutability": "payable",
      "type": "receive"
    }
  ],
  "bytecode": "0x61016060405234801561001157600080fd5b506040518060400160405280601781526020017f42726f63636f6c6920556e636861696e6564205465737400000000000000000081525080604051806040016040528060018152602001603160f81b8152506040518060400160405280601781526020017f42726f63636f6c6920556e636861696e6564205465737400000000000000000081525060405180604001604052806006815260200165109493d0d55560d21b81525081600390816100c791906104df565b5060046100d482826104df565b506100e4915083905060056103c6565b610120526100f38160066103c6565b61014052815160208084019190912060e052815190820120610100524660a05261018060e05161010051604080517f8b73c3c69bb8fe3d512ecc4cf759cc79239f7b179b0ffacaa9a75d522b39400f60208201529081019290925260608201524660808201523060a082015260009060c00160405160208183030381529060405280519060200120905090565b60805250503060c052506000600e819055600c556101a06012600a61069a565b6101ac906103806106b0565b600d556101bb6012600a61069a565b6101c69060016106b0565b60145562015180601555600160ea1b600a554360088190556101ea906001906106c7565b40600b556101fb62015180426106da565b600f557f3f11dd7f7d4c592e8f25c1295cf7e956c481c69b0baba359fb226d89abcaa0f2805460ff1990811660019081179092557f0a8934632a3df8fed3f005a75c3aec51e183a8170cacbd5e00c2df4adf38894a80548216831790557fdf30605f166c0132f44e4b020725a0488a65afc899bc02f721b14366d10a01c280548216831790557f11806663d7c5607b626c27a24f86cda4459ae540248b7a5578f7928743d2bbe08054909116909117905560176020527f0f01b8f5906b446c4064d973f7867371acfd5d01a95de61a91249145ea982e6d80546001600160a01b0319908116737b1bd7a6b4e61c2a123ac6bc2cbfc614437d0470179091557ffd4db9c961abf4266bd514d025e811f68b559d89dcd9d967e929feea5e2e57af805482167393bad53ddfb6132b0ac8e37f6029163e63372cee9081179091557fab1fd3b66dd1e8ee024e6e03a633ffb84a75ca98c89e811f97d8db2985e1a1068054831690911790557ffc005fa084dc75105d59b77460529cde2b8bc092a25dd672cd8c3c7981c3d4d5805482167380ac94316391752a193c1c47e27d382b507c93f31790554660009081526040902054601880549092166001600160a01b039190911617905561075f565b60006020835110156103e2576103db836103f9565b90506103f3565b816103ed84826104df565b5060ff90505b92915050565b600080829050601f8151111561042d578260405163305a27a960e01b815260040161042491906106ed565b60405180910390fd5b80516104388261073b565b179392505050565b634e487b7160e01b600052604160045260246000fd5b600181811c9082168061046a57607f821691505b60208210810361048a57634e487b7160e01b600052602260045260246000fd5b50919050565b601f8211156104da57806000526020600020601f840160051c810160208510156104b75750805b601f840160051c820191505b818110156104d757600081556001016104c3565b50505b505050565b81516001600160401b038111156104f8576104f8610440565b61050c816105068454610456565b84610490565b6020601f82116001811461054057600083156105285750848201515b600019600385901b1c1916600184901b1784556104d7565b600084815260208120601f198516915b828110156105705787850151825560209485019460019092019101610550565b508482101561058e5786840151600019600387901b60f8161c191681555b50505050600190811b01905550565b634e487b7160e01b600052601160045260246000fd5b6001815b60018411156105ee578085048111156105d2576105d261059d565b60018416156105e057908102905b60019390931c9280026105b7565b935093915050565b600082610605575060016103f3565b81610612575060006103f3565b816001811461062857600281146106325761064e565b60019150506103f3565b60ff8411156106435761064361059d565b50506001821b6103f3565b5060208310610133831016604e8410600b8410161715610671575081810a6103f3565b61067e60001984846105b3565b80600019048211156106925761069261059d565b029392505050565b60006106a960ff8416836105f6565b9392505050565b80820281158282048414176103f3576103f361059d565b818103818111156103f3576103f361059d565b808201808211156103f3576103f361059d565b602081526000825180602084015260005b8181101561071b57602081860181015160408684010152016106fe565b506000604082850101526040601f19601f83011684010191505092915050565b8051602080830151919081101561048a5760001960209190910360031b1b16919050565b60805160a05160c05160e0516101005161012051610140516129df6107b960003960006117f7015260006117ca015260006117720152600061174a015260006116a5015260006116cf015260006116f901526129df6000f3fe6080604052600436106103035760003560e01c80636de9f32b116101905780639c281430116100dc578063caa7a15811610095578063d9d98ce41161006f578063d9d98ce4146108ba578063da25b725146108da578063dc6e9cf9146108fa578063dd62ed3e1461091157600080fd5b8063caa7a1581461086e578063cb9ae70714610884578063d505accf1461089a57600080fd5b80639c281430146107d9578063a9059cbb146107ef578063aa56c1df1461080f578063b5ade81b14610822578063b723b34e14610838578063bafedcaa1461085857600080fd5b8063829965cc116101495780638a769d35116101235780638a769d351461076b5780638a877205146107815780638ae0368b146107ae57806395d89b41146107c457600080fd5b8063829965cc1461071557806384b0196e1461072b57806387a2a9d61461075357600080fd5b80636de9f32b1461063b5780636fd396d61461065157806370a082311461068957806379cc6790146106bf5780637e36320b146106df5780637ecebe00146106f557600080fd5b8063294867b91161024f5780633adde9c111610208578063529dca32116101e2578063529dca32146105d35780635cffe9de146105e6578063613255ab146106065780636386d2ac1461062657600080fd5b80633adde9c11461058757806342966c681461059e5780634ef37628146105be57600080fd5b8063294867b9146104f55780632b8c49e31461050b5780632d38bf7a1461052b578063313ce5671461054157806332e997081461055d5780633644e5151461057257600080fd5b806317da485f116102bc57806318bf50771161029657806318bf5077146104635780631eaf8b4b1461048557806323b872dd146104a557806326f3eb3c146104c557600080fd5b806317da485f146104195780631801fbe51461042e57806318160ddd1461044e57600080fd5b806301ffc9a71461035357806306fdde0314610388578063095ea7b3146103aa578063114cccd2146103ca57806313eda8fc146103ee578063163aa00d1461040357600080fd5b3661034e5760405162461bcd60e51b81526020600482015260166024820152754e6f2064697265637420455448206465706f7369747360501b60448201526064015b60405180910390fd5b600080fd5b34801561035f57600080fd5b5061037361036e3660046120dd565b610957565b60405190151581526020015b60405180910390f35b34801561039457600080fd5b5061039d6109a9565b60405161037f919061214d565b3480156103b657600080fd5b506103736103c5366004612175565b610a3b565b3480156103d657600080fd5b506103e060001981565b60405190815260200161037f565b3480156103fa57600080fd5b50610373610a53565b34801561040f57600080fd5b506103e060125481565b34801561042557600080fd5b506103e0610ae4565b34801561043a57600080fd5b506103736104493660046121a1565b610afd565b34801561045a57600080fd5b506002546103e0565b34801561046f57600080fd5b5061048361047e366004612175565b610b6d565b005b34801561049157600080fd5b506103e06104a03660046121da565b610be2565b3480156104b157600080fd5b506103736104c03660046121f5565b610c69565b3480156104d157600080fd5b506103736104e0366004612236565b60166020526000908152604090205460ff1681565b34801561050157600080fd5b506103e0600f5481565b34801561051757600080fd5b50610483610526366004612175565b610c8d565b34801561053757600080fd5b506103e0600c5481565b34801561054d57600080fd5b506040516012815260200161037f565b34801561056957600080fd5b50600a546103e0565b34801561057e57600080fd5b506103e0610cfa565b34801561059357600080fd5b506103e06201518081565b3480156105aa57600080fd5b506104836105b9366004612236565b610d04565b3480156105ca57600080fd5b50600b546103e0565b6104836105e1366004612306565b610d11565b3480156105f257600080fd5b50610373610601366004612427565b610e47565b34801561061257600080fd5b506103e06106213660046124c8565b610fbf565b34801561063257600080fd5b50600e546103e0565b34801561064757600080fd5b506103e0600e5481565b34801561065d57600080fd5b50601054610671906001600160a01b031681565b6040516001600160a01b03909116815260200161037f565b34801561069557600080fd5b506103e06106a43660046124c8565b6001600160a01b031660009081526020819052604090205490565b3480156106cb57600080fd5b506104836106da366004612175565b610fe7565b3480156106eb57600080fd5b506103e060155481565b34801561070157600080fd5b506103e06107103660046124c8565b611000565b34801561072157600080fd5b506103e060095481565b34801561073757600080fd5b5061074061101e565b60405161037f97969594939291906124e5565b34801561075f57600080fd5b506103e0600160ea1b81565b34801561077757600080fd5b506103e0600a5481565b34801561078d57600080fd5b506103e061079c3660046124c8565b60136020526000908152604090205481565b3480156107ba57600080fd5b506103e0600b5481565b3480156107d057600080fd5b5061039d611064565b3480156107e557600080fd5b506103e060145481565b3480156107fb57600080fd5b5061037361080a366004612175565b611073565b61048361081d36600461257d565b611081565b34801561082e57600080fd5b506103e061040081565b34801561084457600080fd5b50610373610853366004612599565b6111a5565b34801561086457600080fd5b506103e060115481565b34801561087a57600080fd5b506103e0600d5481565b34801561089057600080fd5b506103e060085481565b3480156108a657600080fd5b506104836108b53660046125c9565b6113c3565b3480156108c657600080fd5b506103e06108d5366004612175565b6114fd565b3480156108e657600080fd5b50601854610671906001600160a01b031681565b34801561090657600080fd5b506103e06201000081565b34801561091d57600080fd5b506103e061092c366004612640565b6001600160a01b03918216600090815260016020908152604080832093909416825291909152205490565b60006001600160e01b03198216630cccc66560e21b148061098857506001600160e01b031982166336372b0760e01b145b806109a357506001600160e01b031982166301ffc9a760e01b145b92915050565b6060600380546109b89061266e565b80601f01602080910402602001604051908101604052809291908181526020018280546109e49061266e565b8015610a315780601f10610a0657610100808354040283529160200191610a31565b820191906000526020600020905b815481529060010190602001808311610a1457829003601f168201915b5050505050905090565b600033610a4981858561153d565b5060019392505050565b601554336000908152601360205260408120549091610a71916126be565b421015610ac05760405162461bcd60e51b815260206004820152601f60248201527f4661756365743a20636f6f6c646f776e20706572696f64206e6f74206d6574006044820152606401610345565b610acc3360145461154f565b50336000908152601360205260409020429055600190565b6000600a54600160ea1b610af891906126e7565b905090565b4660009081526016602052604081205460ff16610b5c5760405162461bcd60e51b815260206004820181905260248201527f4d696e696e67206e6f7420616c6c6f776564206f6e207468697320636861696e6044820152606401610345565b610b6683336111a5565b9392505050565b336028602160991b0114610b93576040516282b42960e81b815260040160405180910390fd5b610b9d828261154f565b60405181815233906001600160a01b038416907fde22baff038e3a3e08407cbdf617deed74e869a7ba517df611e33131c6e6ea04906020015b60405180910390a35050565b60185460405163c23ee3c360e01b815261ffff83166004820152600060248201819052620186a06044830152916001600160a01b03169063c23ee3c3906064016040805180830381865afa158015610c3e573d6000803e3d6000fd5b505050506040513d601f19601f82011682018060405250810190610c6291906126fb565b5092915050565b600033610c77858285611585565b610c82858585611603565b506001949350505050565b336028602160991b0114610cb3576040516282b42960e81b815260040160405180910390fd5b610cbd8282611662565b60405181815233906001600160a01b038416907fb90795a66650155983e242cac3e1ac1a4dc26f8ed2987f3ce416a34e00111fd490602001610bd6565b6000610af8611698565b610d0e3382611662565b50565b82308114610d595760405162461bcd60e51b81526020600482015260156024820152742737ba103932b3b4b9ba32b932b21039b2b73232b960591b6044820152606401610345565b6018546001600160a01b03163314610dcc5760405162461bcd60e51b815260206004820152603060248201527f4f6e6c792074686520576f726d686f6c652072656c617965722063616e20636160448201526f3636103a3434b990333ab731ba34b7b760811b6064820152608401610345565b60008087806020019051810190610de3919061271f565b9092509050610df2818361154f565b604080518381526001600160a01b038316602082015261ffff87168183015290517f02f882dcf6297baca7a2338fb6ce8c47c9dabd2e68a1a3442db78850ce6bb21f9181900360600190a15050505050505050565b600080610e5386610fbf565b905080851115610e795760405163fd9a760960e01b815260048101829052602401610345565b6000610e8587876114fd565b9050610e91888761154f565b6040516323e30c8b60e01b81527f439148f0bbc682ca079e46d6e2c2f0c1e3b820f1a291b069d8882abf8cf18dd9906001600160a01b038a16906323e30c8b90610ee99033908c908c9088908d908d90600401612745565b6020604051808303816000875af1158015610f08573d6000803e3d6000fd5b505050506040513d601f19601f82011682018060405250810190610f2c919061279e565b14610f545760405162678c5b60e81b81526001600160a01b0389166004820152602401610345565b6000610f6a8930610f65858b6126be565b611585565b811580610f7e57506001600160a01b038116155b15610f9b57610f9689610f91848a6126be565b611662565b610fb0565b610fa58988611662565b610fb0898284611603565b50600198975050505050505050565b60006001600160a01b0382163014610fd85760006109a3565b6002546109a3906000196127b7565b610ff2823383611585565b610ffc8282611662565b5050565b6001600160a01b0381166000908152600760205260408120546109a3565b6000606080600080600060606110326117c3565b61103a6117f0565b60408051600080825260208201909252600f60f81b9b939a50919850469750309650945092509050565b6060600480546109b89061266e565b600033610a49818585611603565b600061108c83610be2565b905033348211156110f35760405162461bcd60e51b815260206004820152602b60248201527f496e73756666696369656e742066756e647320666f722063726f73732d63686160448201526a696e2064656c697665727960a81b6064820152608401610345565b6110fd8184611662565b60185460408051602081018690526001600160a01b038481168284015282518083038401815260608301938490526347f66e8160e11b90935290921691638fecdd0291859161115b918991309190600090620186a0906064016127ca565b60206040518083038185885af1158015611179573d6000803e3d6000fd5b50505050506040513d601f19601f8201168201806040525081019061119e919061280c565b5050505050565b4660009081526016602052604081205460ff166112045760405162461bcd60e51b815260206004820181905260248201527f4d696e696e67206e6f7420616c6c6f776564206f6e207468697320636861696e6044820152606401610345565b600d54611213906000196127b7565b600d5460025461122391906126be565b10156113bb57600b5460408051602080820193909352606085901b6bffffffffffffffffffffffff19168183015260548082018790528251808303909101815260749091019091528051910120600a548111156112ba5760405162461bcd60e51b8152602060048201526015602482015274111a59d95cdd08195e18d959591cc81d185c99d95d605a1b6044820152606401610345565b436012540361130b5760405162461bcd60e51b815260206004820152601e60248201527f416c726561647920726577617264656420696e207468697320626c6f636b00006044820152606401610345565b61131783600d5461154f565b600d54600e600082825461132b91906126be565b9091555050601080546001600160a01b0319166001600160a01b038516179055600d546011554360125561135d61181d565b600d54600954600b54604080519384526020840192909252908201526001600160a01b038416907fcf6fbb9dcea7d07263ab4f5c3a92f53af33dffc421d9d121e1c74b307e68189d9060600160405180910390a260019150506109a3565b5060006109a3565b834211156113e75760405163313c898160e11b815260048101859052602401610345565b60007f6e71edae12b1b97f4d1f60370fef10105fa2faae0126114a169c64845d6126c98888886114348c6001600160a01b0316600090815260076020526040902080546001810190915590565b6040805160208101969096526001600160a01b0394851690860152929091166060840152608083015260a082015260c0810186905260e001604051602081830303815290604052805190602001209050600061148f826119e3565b9050600061149f82878787611a10565b9050896001600160a01b0316816001600160a01b0316146114e6576040516325c0072360e11b81526001600160a01b0380831660048301528b166024820152604401610345565b6114f18a8a8a61153d565b50505050505050505050565b60006001600160a01b038316301461153357604051635ad3edc960e11b81526001600160a01b0384166004820152602401610345565b610b668383611a3e565b61154a8383836001611aca565b505050565b6001600160a01b0382166115795760405163ec442f0560e01b815260006004820152602401610345565b610ffc60008383611b9f565b6001600160a01b0383811660009081526001602090815260408083209386168352929052205460001981146115fd57818110156115ee57604051637dc7a0d960e11b81526001600160a01b03841660048201526024810182905260448101839052606401610345565b6115fd84848484036000611aca565b50505050565b6001600160a01b03831661162d57604051634b637e8f60e11b815260006004820152602401610345565b6001600160a01b0382166116575760405163ec442f0560e01b815260006004820152602401610345565b61154a838383611b9f565b6001600160a01b03821661168c57604051634b637e8f60e11b815260006004820152602401610345565b610ffc82600083611b9f565b6000306001600160a01b037f0000000000000000000000000000000000000000000000000000000000000000161480156116f157507f000000000000000000000000000000000000000000000000000000000000000046145b1561171b57507f000000000000000000000000000000000000000000000000000000000000000090565b610af8604080517f8b73c3c69bb8fe3d512ecc4cf759cc79239f7b179b0ffacaa9a75d522b39400f60208201527f0000000000000000000000000000000000000000000000000000000000000000918101919091527f000000000000000000000000000000000000000000000000000000000000000060608201524660808201523060a082015260009060c00160405160208183030381529060405280519060200120905090565b6060610af87f00000000000000000000000000000000000000000000000000000000000000006005611cc9565b6060610af87f00000000000000000000000000000000000000000000000000000000000000006006611cc9565b600f54421061193057600c805490600061183683612836565b91905055506000600c54600261184c9190612936565b6118586012600a612942565b61186490610380612951565b61186e91906126e7565b905061187c6012600a612942565b611887906007612951565b8110156118c957600c805490600061189e83612968565b91905055506118ab601290565b6118b690600a612942565b6118c1906007612951565b600d556118cf565b600d8190555b62015180600f60008282546118e491906126be565b9091555050600d54600c546040517f3efe2b1ade87153c913a322f09a35c930d7fd699770b8d7cdd294e1debf6e9e49261192692908252602082015260400190565b60405180910390a1505b6000196009541061194557600060095561195b565b6009805490600061195583612836565b91905055505b61040060095461196b919061297f565b60000361198f5760006008544361198291906127b7565b905061198d81611d74565b505b61199a6001436127b7565b40600b8190556009546040517fd55a127469a90026709eb7e8f26aa1c8458a202c071f385af1989f3217d39183926119d9928252602082015260400190565b60405180910390a1565b60006109a36119f0611698565b8360405161190160f01b8152600281019290925260228201526042902090565b600080600080611a2288888888611ed8565b925092509250611a328282611fa7565b50909695505050505050565b60006001600160a01b0383163014611aa25760405162461bcd60e51b815260206004820152602160248201527f4552433230466c6173684d696e743a20556e737570706f7274656420746f6b656044820152603760f91b6064820152608401610345565b6127108211611ab2576001610b66565b612710611ac0600184612951565b610b6691906126e7565b6001600160a01b038416611af45760405163e602df0560e01b815260006004820152602401610345565b6001600160a01b038316611b1e57604051634a1406b160e11b815260006004820152602401610345565b6001600160a01b03808516600090815260016020908152604080832093871683529290522082905580156115fd57826001600160a01b0316846001600160a01b03167f8c5be1e5ebec7d5bd14f71427d1e84f3dd0314c0f7b2291e5b200ac8c7c3b92584604051611b9191815260200190565b60405180910390a350505050565b6001600160a01b038316611bca578060026000828254611bbf91906126be565b90915550611c3c9050565b6001600160a01b03831660009081526020819052604090205481811015611c1d5760405163391434e360e21b81526001600160a01b03851660048201526024810182905260448101839052606401610345565b6001600160a01b03841660009081526020819052604090209082900390555b6001600160a01b038216611c5857600280548290039055611c77565b6001600160a01b03821660009081526020819052604090208054820190555b816001600160a01b0316836001600160a01b03167fddf252ad1be2c89b69c2b068fc378daa952ba7f163c4a11628f55a4df523b3ef83604051611cbc91815260200190565b60405180910390a3505050565b606060ff8314611ce357611cdc83612060565b90506109a3565b818054611cef9061266e565b80601f0160208091040260200160405190810160405280929190818152602001828054611d1b9061266e565b8015611d685780601f10611d3d57610100808354040283529160200191611d68565b820191906000526020600020905b815481529060010190602001808311611d4b57829003601f168201915b505050505090506109a3565b6000611d83610400603c612951565b905080821015611df557600082611d9b836064612951565b611da591906126e7565b90506000611dc06103e8611dba6064856127b7565b9061209f565b9050806107d0600a54611dd391906126e7565b611ddd9190612951565b600a54611dea91906127b7565b600a5550611e529050565b600081611e03846064612951565b611e0d91906126e7565b90506000611e226103e8611dba6064856127b7565b9050806107d0600a54611e3591906126e7565b611e3f9190612951565b600a54611e4c91906126be565b600a5550505b43600855600a54620100001115611e6b5762010000600a555b600160ea1b600a541115611e8257600160ea1b600a555b600a547f8354831842174c9eb4b9d1af2734d3e6d8a28b0bd7dd4dca155e5a66134b658590611eb581600160ea1b6126e7565b604080519283526020830191909152810184905260600160405180910390a15050565b600080807f7fffffffffffffffffffffffffffffff5d576e7357a4501ddfe92f46681b20a0841115611f135750600091506003905082611f9d565b604080516000808252602082018084528a905260ff891692820192909252606081018790526080810186905260019060a0016020604051602081039080840390855afa158015611f67573d6000803e3d6000fd5b5050604051601f1901519150506001600160a01b038116611f9357506000925060019150829050611f9d565b9250600091508190505b9450945094915050565b6000826003811115611fbb57611fbb612993565b03611fc4575050565b6001826003811115611fd857611fd8612993565b03611ff65760405163f645eedf60e01b815260040160405180910390fd5b600282600381111561200a5761200a612993565b0361202b5760405163fce698f760e01b815260048101829052602401610345565b600382600381111561203f5761203f612993565b03610ffc576040516335e2f38360e21b815260048101829052602401610345565b6060600061206d836120b5565b604080516020808252818301909252919250600091906020820181803683375050509182525060208101929092525090565b60008183106120ae5781610b66565b5090919050565b600060ff8216601f8111156109a357604051632cd44ac360e21b815260040160405180910390fd5b6000602082840312156120ef57600080fd5b81356001600160e01b031981168114610b6657600080fd5b6000815180845260005b8181101561212d57602081850181015186830182015201612111565b506000602082860101526020601f19601f83011685010191505092915050565b602081526000610b666020830184612107565b6001600160a01b0381168114610d0e57600080fd5b6000806040838503121561218857600080fd5b823561219381612160565b946020939093013593505050565b600080604083850312156121b457600080fd5b50508035926020909101359150565b803561ffff811681146121d557600080fd5b919050565b6000602082840312156121ec57600080fd5b610b66826121c3565b60008060006060848603121561220a57600080fd5b833561221581612160565b9250602084013561222581612160565b929592945050506040919091013590565b60006020828403121561224857600080fd5b5035919050565b634e487b7160e01b600052604160045260246000fd5b604051601f8201601f1916810167ffffffffffffffff8111828210171561228e5761228e61224f565b604052919050565b600082601f8301126122a757600080fd5b813567ffffffffffffffff8111156122c1576122c161224f565b6122d4601f8201601f1916602001612265565b8181528460208386010111156122e957600080fd5b816020850160208301376000918101602001919091529392505050565b600080600080600060a0868803121561231e57600080fd5b853567ffffffffffffffff81111561233557600080fd5b61234188828901612296565b955050602086013567ffffffffffffffff81111561235e57600080fd5b8601601f8101881361236f57600080fd5b803567ffffffffffffffff8111156123895761238961224f565b8060051b61239960208201612265565b9182526020818401810192908101908b8411156123b557600080fd5b6020850192505b838310156123fc57823567ffffffffffffffff8111156123db57600080fd5b6123ea8d602083890101612296565b835250602092830192909101906123bc565b9750505050604087013593506124169050606087016121c3565b949793965091946080013592915050565b60008060008060006080868803121561243f57600080fd5b853561244a81612160565b9450602086013561245a81612160565b935060408601359250606086013567ffffffffffffffff81111561247d57600080fd5b8601601f8101881361248e57600080fd5b803567ffffffffffffffff8111156124a557600080fd5b8860208284010111156124b757600080fd5b959894975092955050506020019190565b6000602082840312156124da57600080fd5b8135610b6681612160565b60ff60f81b8816815260e06020820152600061250460e0830189612107565b82810360408401526125168189612107565b606084018890526001600160a01b038716608085015260a0840186905283810360c08501528451808252602080870193509091019060005b8181101561256c57835183526020938401939092019160010161254e565b50909b9a5050505050505050505050565b6000806040838503121561259057600080fd5b612193836121c3565b600080604083850312156125ac57600080fd5b8235915060208301356125be81612160565b809150509250929050565b600080600080600080600060e0888a0312156125e457600080fd5b87356125ef81612160565b965060208801356125ff81612160565b95506040880135945060608801359350608088013560ff8116811461262357600080fd5b9699959850939692959460a0840135945060c09093013592915050565b6000806040838503121561265357600080fd5b823561265e81612160565b915060208301356125be81612160565b600181811c9082168061268257607f821691505b6020821081036126a257634e487b7160e01b600052602260045260246000fd5b50919050565b634e487b7160e01b600052601160045260246000fd5b808201808211156109a3576109a36126a8565b634e487b7160e01b600052601260045260246000fd5b6000826126f6576126f66126d1565b500490565b6000806040838503121561270e57600080fd5b505080516020909101519092909150565b6000806040838503121561273257600080fd5b825160208401519092506125be81612160565b6001600160a01b03878116825286166020820152604081018590526060810184905260a0608082018190528101829052818360c0830137600081830160c090810191909152601f909201601f1916010195945050505050565b6000602082840312156127b057600080fd5b5051919050565b818103818111156109a3576109a36126a8565b61ffff861681526001600160a01b038516602082015260a0604082018190526000906127f890830186612107565b606083019490945250608001529392505050565b60006020828403121561281e57600080fd5b815167ffffffffffffffff81168114610b6657600080fd5b600060018201612848576128486126a8565b5060010190565b6001815b600184111561288a5780850481111561286e5761286e6126a8565b600184161561287c57908102905b60019390931c928002612853565b935093915050565b6000826128a1575060016109a3565b816128ae575060006109a3565b81600181146128c457600281146128ce576128ea565b60019150506109a3565b60ff8411156128df576128df6126a8565b50506001821b6109a3565b5060208310610133831016604e8410600b841016171561290d575081810a6109a3565b61291a600019848461284f565b806000190482111561292e5761292e6126a8565b029392505050565b6000610b668383612892565b6000610b6660ff841683612892565b80820281158282048414176109a3576109a36126a8565b600081612977576129776126a8565b506000190190565b60008261298e5761298e6126d1565b500690565b634e487b7160e01b600052602160045260246000fdfea26469706673582212202efa1b81ff6a357608b5dba389d2efbaa915e5748023fb11c9f3679bd4a5cb4664736f6c634300081c0033",
  "linkReferences": {},
  "deployedLinkReferences": {}
}