{
  "_format": "hh-sol-artifact-1",
  "contractName": "BroccoliUnchainedTest",
  "sourceName": "contracts/BroccoliUnchainedTest.sol",
  "abi": [
    {
      "inputs": [],
      "stateMutability": "nonpayable",
      "type": "constructor"
    },
    {
      "inputs": [],
      "name": "ECDSAInvalidSignature",
      "type": "error"
    },
    {
      "inputs": [
        {
          "internalType": "uint256",
          "name": "length",
          "type": "uint256"
        }
      ],
      "name": "ECDSAInvalidSignatureLength",
      "type": "error"
    },
    {
      "inputs": [
        {
          "internalType": "bytes32",
          "name": "s",
          "type": "bytes32"
        }
      ],
      "name": "ECDSAInvalidSignatureS",
      "type": "error"
    },
    {
      "inputs": [
        {
          "internalType": "address",
          "name": "spender",
          "type": "address"
        },
        {
          "internalType": "uint256",
          "name": "allowance",
          "type": "uint256"
        },
        {
          "internalType": "uint256",
          "name": "needed",
          "type": "uint256"
        }
      ],
      "name": "ERC20InsufficientAllowance",
      "type": "error"
    },
    {
      "inputs": [
        {
          "internalType": "address",
          "name": "sender",
          "type": "address"
        },
        {
          "internalType": "uint256",
          "name": "balance",
          "type": "uint256"
        },
        {
          "internalType": "uint256",
          "name": "needed",
          "type": "uint256"
        }
      ],
      "name": "ERC20InsufficientBalance",
      "type": "error"
    },
    {
      "inputs": [
        {
          "internalType": "address",
          "name": "approver",
          "type": "address"
        }
      ],
      "name": "ERC20InvalidApprover",
      "type": "error"
    },
    {
      "inputs": [
        {
          "internalType": "address",
          "name": "receiver",
          "type": "address"
        }
      ],
      "name": "ERC20InvalidReceiver",
      "type": "error"
    },
    {
      "inputs": [
        {
          "internalType": "address",
          "name": "sender",
          "type": "address"
        }
      ],
      "name": "ERC20InvalidSender",
      "type": "error"
    },
    {
      "inputs": [
        {
          "internalType": "address",
          "name": "spender",
          "type": "address"
        }
      ],
      "name": "ERC20InvalidSpender",
      "type": "error"
    },
    {
      "inputs": [
        {
          "internalType": "uint256",
          "name": "deadline",
          "type": "uint256"
        }
      ],
      "name": "ERC2612ExpiredSignature",
      "type": "error"
    },
    {
      "inputs": [
        {
          "internalType": "address",
          "name": "signer",
          "type": "address"
        },
        {
          "internalType": "address",
          "name": "owner",
          "type": "address"
        }
      ],
      "name": "ERC2612InvalidSigner",
      "type": "error"
    },
    {
      "inputs": [
        {
          "internalType": "uint256",
          "name": "maxLoan",
          "type": "uint256"
        }
      ],
      "name": "ERC3156ExceededMaxLoan",
      "type": "error"
    },
    {
      "inputs": [
        {
          "internalType": "address",
          "name": "receiver",
          "type": "address"
        }
      ],
      "name": "ERC3156InvalidReceiver",
      "type": "error"
    },
    {
      "inputs": [
        {
          "internalType": "address",
          "name": "token",
          "type": "address"
        }
      ],
      "name": "ERC3156UnsupportedToken",
      "type": "error"
    },
    {
      "inputs": [
        {
          "internalType": "address",
          "name": "account",
          "type": "address"
        },
        {
          "internalType": "uint256",
          "name": "currentNonce",
          "type": "uint256"
        }
      ],
      "name": "InvalidAccountNonce",
      "type": "error"
    },
    {
      "inputs": [],
      "name": "InvalidShortString",
      "type": "error"
    },
    {
      "inputs": [
        {
          "internalType": "string",
          "name": "str",
          "type": "string"
        }
      ],
      "name": "StringTooLong",
      "type": "error"
    },
    {
      "inputs": [],
      "name": "Unauthorized",
      "type": "error"
    },
    {
      "anonymous": false,
      "inputs": [
        {
          "indexed": true,
          "internalType": "address",
          "name": "owner",
          "type": "address"
        },
        {
          "indexed": true,
          "internalType": "address",
          "name": "spender",
          "type": "address"
        },
        {
          "indexed": false,
          "internalType": "uint256",
          "name": "value",
          "type": "uint256"
        }
      ],
      "name": "Approval",
      "type": "event"
    },
    {
      "anonymous": false,
      "inputs": [
        {
          "indexed": false,
          "internalType": "uint256",
          "name": "amount",
          "type": "uint256"
        },
        {
          "indexed": false,
          "internalType": "address",
          "name": "owner",
          "type": "address"
        },
        {
          "indexed": false,
          "internalType": "uint16",
          "name": "sourceChain",
          "type": "uint16"
        }
      ],
      "name": "CrossChainReceived",
      "type": "event"
    },
    {
      "anonymous": false,
      "inputs": [
        {
          "indexed": true,
          "internalType": "address",
          "name": "from",
          "type": "address"
        },
        {
          "indexed": false,
          "internalType": "uint256",
          "name": "amount",
          "type": "uint256"
        },
        {
          "indexed": true,
          "internalType": "address",
          "name": "sender",
          "type": "address"
        }
      ],
      "name": "CrosschainBurn",
      "type": "event"
    },
    {
      "anonymous": false,
      "inputs": [
        {
          "indexed": true,
          "internalType": "address",
          "name": "to",
          "type": "address"
        },
        {
          "indexed": false,
          "internalType": "uint256",
          "name": "amount",
          "type": "uint256"
        },
        {
          "indexed": true,
          "internalType": "address",
          "name": "sender",
          "type": "address"
        }
      ],
      "name": "CrosschainMint",
      "type": "event"
    },
    {
      "anonymous": false,
      "inputs": [
        {
          "indexed": false,
          "internalType": "uint256",
          "name": "newTarget",
          "type": "uint256"
        },
        {
          "indexed": false,
          "internalType": "uint256",
          "name": "newDifficulty",
          "type": "uint256"
        },
        {
          "indexed": false,
          "internalType": "uint256",
          "name": "ethBlocksSinceLastDifficultyPeriod",
          "type": "uint256"
        }
      ],
      "name": "DifficultyAdjusted",
      "type": "event"
    },
    {
      "anonymous": false,
      "inputs": [],
      "name": "EIP712DomainChanged",
      "type": "event"
    },
    {
      "anonymous": false,
      "inputs": [
        {
          "indexed": true,
          "internalType": "address",
          "name": "from",
          "type": "address"
        },
        {
          "indexed": false,
          "internalType": "uint256",
          "name": "rewardAmount",
          "type": "uint256"
        },
        {
          "indexed": false,
          "internalType": "uint256",
          "name": "epochCount",
          "type": "uint256"
        },
        {
          "indexed": false,
          "internalType": "bytes32",
          "name": "newChallengeNumber",
          "type": "bytes32"
        }
      ],
      "name": "Mint",
      "type": "event"
    },
    {
      "anonymous": false,
      "inputs": [
        {
          "indexed": false,
          "internalType": "uint256",
          "name": "epochCount",
          "type": "uint256"
        },
        {
          "indexed": false,
          "internalType": "bytes32",
          "name": "challengeNumber",
          "type": "bytes32"
        }
      ],
      "name": "NewEpochStarted",
      "type": "event"
    },
    {
      "anonymous": false,
      "inputs": [
        {
          "indexed": false,
          "internalType": "uint256",
          "name": "newReward",
          "type": "uint256"
        },
        {
          "indexed": false,
          "internalType": "uint256",
          "name": "rewardEra",
          "type": "uint256"
        }
      ],
      "name": "RewardUpdated",
      "type": "event"
    },
    {
      "anonymous": false,
      "inputs": [
        {
          "indexed": true,
          "internalType": "address",
          "name": "from",
          "type": "address"
        },
        {
          "indexed": true,
          "internalType": "address",
          "name": "to",
          "type": "address"
        },
        {
          "indexed": false,
          "internalType": "uint256",
          "name": "value",
          "type": "uint256"
        }
      ],
      "name": "Transfer",
      "type": "event"
    },
    {
      "inputs": [],
      "name": "DOMAIN_SEPARATOR",
      "outputs": [
        {
          "internalType": "bytes32",
          "name": "",
          "type": "bytes32"
        }
      ],
      "stateMutability": "view",
      "type": "function"
    },
    {
      "inputs": [],
      "name": "HALVING_PERIOD",
      "outputs": [
        {
          "internalType": "uint256",
          "name": "",
          "type": "uint256"
        }
      ],
      "stateMutability": "view",
      "type": "function"
    },
    {
      "inputs": [],
      "name": "MAX_LIMIT",
      "outputs": [
        {
          "internalType": "uint256",
          "name": "",
          "type": "uint256"
        }
      ],
      "stateMutability": "view",
      "type": "function"
    },
    {
      "inputs": [],
      "name": "_BLOCKS_PER_READJUSTMENT",
      "outputs": [
        {
          "internalType": "uint256",
          "name": "",
          "type": "uint256"
        }
      ],
      "stateMutability": "view",
      "type": "function"
    },
    {
      "inputs": [],
      "name": "_MAXIMUM_TARGET",
      "outputs": [
        {
          "internalType": "uint256",
          "name": "",
          "type": "uint256"
        }
      ],
      "stateMutability": "view",
      "type": "function"
    },
    {
      "inputs": [],
      "name": "_MINIMUM_TARGET",
      "outputs": [
        {
          "internalType": "uint256",
          "name": "",
          "type": "uint256"
        }
      ],
      "stateMutability": "view",
      "type": "function"
    },
    {
      "inputs": [
        {
          "internalType": "address",
          "name": "owner",
          "type": "address"
        },
        {
          "internalType": "address",
          "name": "spender",
          "type": "address"
        }
      ],
      "name": "allowance",
      "outputs": [
        {
          "internalType": "uint256",
          "name": "",
          "type": "uint256"
        }
      ],
      "stateMutability": "view",
      "type": "function"
    },
    {
      "inputs": [
        {
          "internalType": "uint256",
          "name": "",
          "type": "uint256"
        }
      ],
      "name": "allowedChains",
      "outputs": [
        {
          "internalType": "bool",
          "name": "",
          "type": "bool"
        }
      ],
      "stateMutability": "view",
      "type": "function"
    },
    {
      "inputs": [
        {
          "internalType": "address",
          "name": "spender",
          "type": "address"
        },
        {
          "internalType": "uint256",
          "name": "value",
          "type": "uint256"
        }
      ],
      "name": "approve",
      "outputs": [
        {
          "internalType": "bool",
          "name": "",
          "type": "bool"
        }
      ],
      "stateMutability": "nonpayable",
      "type": "function"
    },
    {
      "inputs": [
        {
          "internalType": "address",
          "name": "account",
          "type": "address"
        }
      ],
      "name": "balanceOf",
      "outputs": [
        {
          "internalType": "uint256",
          "name": "",
          "type": "uint256"
        }
      ],
      "stateMutability": "view",
      "type": "function"
    },
    {
      "inputs": [
        {
          "internalType": "uint256",
          "name": "value",
          "type": "uint256"
        }
      ],
      "name": "burn",
      "outputs": [],
      "stateMutability": "nonpayable",
      "type": "function"
    },
    {
      "inputs": [
        {
          "internalType": "address",
          "name": "account",
          "type": "address"
        },
        {
          "internalType": "uint256",
          "name": "value",
          "type": "uint256"
        }
      ],
      "name": "burnFrom",
      "outputs": [],
      "stateMutability": "nonpayable",
      "type": "function"
    },
    {
      "inputs": [],
      "name": "challengeNumber",
      "outputs": [
        {
          "internalType": "bytes32",
          "name": "",
          "type": "bytes32"
        }
      ],
      "stateMutability": "view",
      "type": "function"
    },
    {
      "inputs": [
        {
          "internalType": "address",
          "name": "_from",
          "type": "address"
        },
        {
          "internalType": "uint256",
          "name": "_amount",
          "type": "uint256"
        }
      ],
      "name": "crosschainBurn",
      "outputs": [],
      "stateMutability": "nonpayable",
      "type": "function"
    },
    {
      "inputs": [
        {
          "internalType": "address",
          "name": "_to",
          "type": "address"
        },
        {
          "internalType": "uint256",
          "name": "_amount",
          "type": "uint256"
        }
      ],
      "name": "crosschainMint",
      "outputs": [],
      "stateMutability": "nonpayable",
      "type": "function"
    },
    {
      "inputs": [],
      "name": "currentMiningReward",
      "outputs": [
        {
          "internalType": "uint256",
          "name": "",
          "type": "uint256"
        }
      ],
      "stateMutability": "view",
      "type": "function"
    },
    {
      "inputs": [],
      "name": "decimals",
      "outputs": [
        {
          "internalType": "uint8",
          "name": "",
          "type": "uint8"
        }
      ],
      "stateMutability": "view",
      "type": "function"
    },
    {
      "inputs": [],
      "name": "eip712Domain",
      "outputs": [
        {
          "internalType": "bytes1",
          "name": "fields",
          "type": "bytes1"
        },
        {
          "internalType": "string",
          "name": "name",
          "type": "string"
        },
        {
          "internalType": "string",
          "name": "version",
          "type": "string"
        },
        {
          "internalType": "uint256",
          "name": "chainId",
          "type": "uint256"
        },
        {
          "internalType": "address",
          "name": "verifyingContract",
          "type": "address"
        },
        {
          "internalType": "bytes32",
          "name": "salt",
          "type": "bytes32"
        },
        {
          "internalType": "uint256[]",
          "name": "extensions",
          "type": "uint256[]"
        }
      ],
      "stateMutability": "view",
      "type": "function"
    },
    {
      "inputs": [],
      "name": "epochCount",
      "outputs": [
        {
          "internalType": "uint256",
          "name": "",
          "type": "uint256"
        }
      ],
      "stateMutability": "view",
      "type": "function"
    },
    {
      "inputs": [],
      "name": "faucetAmount",
      "outputs": [
        {
          "internalType": "uint256",
          "name": "",
          "type": "uint256"
        }
      ],
      "stateMutability": "view",
      "type": "function"
    },
    {
      "inputs": [],
      "name": "faucetCooldown",
      "outputs": [
        {
          "internalType": "uint256",
          "name": "",
          "type": "uint256"
        }
      ],
      "stateMutability": "view",
      "type": "function"
    },
    {
      "inputs": [],
      "name": "faucetMint",
      "outputs": [
        {
          "internalType": "bool",
          "name": "success",
          "type": "bool"
        }
      ],
      "stateMutability": "nonpayable",
      "type": "function"
    },
    {
      "inputs": [
        {
          "internalType": "address",
          "name": "token",
          "type": "address"
        },
        {
          "internalType": "uint256",
          "name": "value",
          "type": "uint256"
        }
      ],
      "name": "flashFee",
      "outputs": [
        {
          "internalType": "uint256",
          "name": "",
          "type": "uint256"
        }
      ],
      "stateMutability": "view",
      "type": "function"
    },
    {
      "inputs": [
        {
          "internalType": "contract IERC3156FlashBorrower",
          "name": "receiver",
          "type": "address"
        },
        {
          "internalType": "address",
          "name": "token",
          "type": "address"
        },
        {
          "internalType": "uint256",
          "name": "value",
          "type": "uint256"
        },
        {
          "internalType": "bytes",
          "name": "data",
          "type": "bytes"
        }
      ],
      "name": "flashLoan",
      "outputs": [
        {
          "internalType": "bool",
          "name": "",
          "type": "bool"
        }
      ],
      "stateMutability": "nonpayable",
      "type": "function"
    },
    {
      "inputs": [],
      "name": "getChallengeNumber",
      "outputs": [
        {
          "internalType": "bytes32",
          "name": "",
          "type": "bytes32"
        }
      ],
      "stateMutability": "view",
      "type": "function"
    },
    {
      "inputs": [],
      "name": "getMiningDifficulty",
      "outputs": [
        {
          "internalType": "uint256",
          "name": "",
          "type": "uint256"
        }
      ],
      "stateMutability": "view",
      "type": "function"
    },
    {
      "inputs": [],
      "name": "getMiningTarget",
      "outputs": [
        {
          "internalType": "uint256",
          "name": "",
          "type": "uint256"
        }
      ],
      "stateMutability": "view",
      "type": "function"
    },
    {
      "inputs": [
        {
          "internalType": "address",
          "name": "",
          "type": "address"
        }
      ],
      "name": "lastFaucetClaim",
      "outputs": [
        {
          "internalType": "uint256",
          "name": "",
          "type": "uint256"
        }
      ],
      "stateMutability": "view",
      "type": "function"
    },
    {
      "inputs": [],
      "name": "lastRewardAmount",
      "outputs": [
        {
          "internalType": "uint256",
          "name": "",
          "type": "uint256"
        }
      ],
      "stateMutability": "view",
      "type": "function"
    },
    {
      "inputs": [],
      "name": "lastRewardEthBlockNumber",
      "outputs": [
        {
          "internalType": "uint256",
          "name": "",
          "type": "uint256"
        }
      ],
      "stateMutability": "view",
      "type": "function"
    },
    {
      "inputs": [],
      "name": "lastRewardTo",
      "outputs": [
        {
          "internalType": "address",
          "name": "",
          "type": "address"
        }
      ],
      "stateMutability": "view",
      "type": "function"
    },
    {
      "inputs": [],
      "name": "latestDifficultyPeriodStarted",
      "outputs": [
        {
          "internalType": "uint256",
          "name": "",
          "type": "uint256"
        }
      ],
      "stateMutability": "view",
      "type": "function"
    },
    {
      "inputs": [
        {
          "internalType": "address",
          "name": "token",
          "type": "address"
        }
      ],
      "name": "maxFlashLoan",
      "outputs": [
        {
          "internalType": "uint256",
          "name": "",
          "type": "uint256"
        }
      ],
      "stateMutability": "view",
      "type": "function"
    },
    {
      "inputs": [],
      "name": "minedSupply",
      "outputs": [
        {
          "internalType": "uint256",
          "name": "",
          "type": "uint256"
        }
      ],
      "stateMutability": "view",
      "type": "function"
    },
    {
      "inputs": [],
      "name": "miningStartTimestamp",
      "outputs": [
        {
          "internalType": "uint256",
          "name": "",
          "type": "uint256"
        }
      ],
      "stateMutability": "view",
      "type": "function"
    },
    {
      "inputs": [],
      "name": "miningTarget",
      "outputs": [
        {
          "internalType": "uint256",
          "name": "",
          "type": "uint256"
        }
      ],
      "stateMutability": "view",
      "type": "function"
    },
    {
      "inputs": [
        {
          "internalType": "uint256",
          "name": "nonce",
          "type": "uint256"
        },
        {
          "internalType": "bytes32",
          "name": "",
          "type": "bytes32"
        }
      ],
      "name": "mint",
      "outputs": [
        {
          "internalType": "bool",
          "name": "success",
          "type": "bool"
        }
      ],
      "stateMutability": "nonpayable",
      "type": "function"
    },
    {
      "inputs": [
        {
          "internalType": "uint256",
          "name": "nonce",
          "type": "uint256"
        },
        {
          "internalType": "address",
          "name": "minter",
          "type": "address"
        }
      ],
      "name": "mintTo",
      "outputs": [
        {
          "internalType": "bool",
          "name": "success",
          "type": "bool"
        }
      ],
      "stateMutability": "nonpayable",
      "type": "function"
    },
    {
      "inputs": [],
      "name": "name",
      "outputs": [
        {
          "internalType": "string",
          "name": "",
          "type": "string"
        }
      ],
      "stateMutability": "view",
      "type": "function"
    },
    {
      "inputs": [],
      "name": "nextHalvingTime",
      "outputs": [
        {
          "internalType": "uint256",
          "name": "",
          "type": "uint256"
        }
      ],
      "stateMutability": "view",
      "type": "function"
    },
    {
      "inputs": [
        {
          "internalType": "address",
          "name": "owner",
          "type": "address"
        }
      ],
      "name": "nonces",
      "outputs": [
        {
          "internalType": "uint256",
          "name": "",
          "type": "uint256"
        }
      ],
      "stateMutability": "view",
      "type": "function"
    },
    {
      "inputs": [
        {
          "internalType": "address",
          "name": "owner",
          "type": "address"
        },
        {
          "internalType": "address",
          "name": "spender",
          "type": "address"
        },
        {
          "internalType": "uint256",
          "name": "value",
          "type": "uint256"
        },
        {
          "internalType": "uint256",
          "name": "deadline",
          "type": "uint256"
        },
        {
          "internalType": "uint8",
          "name": "v",
          "type": "uint8"
        },
        {
          "internalType": "bytes32",
          "name": "r",
          "type": "bytes32"
        },
        {
          "internalType": "bytes32",
          "name": "s",
          "type": "bytes32"
        }
      ],
      "name": "permit",
      "outputs": [],
      "stateMutability": "nonpayable",
      "type": "function"
    },
    {
      "inputs": [
        {
          "internalType": "uint16",
          "name": "targetChain",
          "type": "uint16"
        }
      ],
      "name": "quoteWormholeCrossChainCost",
      "outputs": [
        {
          "internalType": "uint256",
          "name": "cost",
          "type": "uint256"
        }
      ],
      "stateMutability": "view",
      "type": "function"
    },
    {
      "inputs": [
        {
          "internalType": "bytes",
          "name": "payload",
          "type": "bytes"
        },
        {
          "internalType": "bytes[]",
          "name": "",
          "type": "bytes[]"
        },
        {
          "internalType": "bytes32",
          "name": "sourceAddress",
          "type": "bytes32"
        },
        {
          "internalType": "uint16",
          "name": "sourceChain",
          "type": "uint16"
        },
        {
          "internalType": "bytes32",
          "name": "",
          "type": "bytes32"
        }
      ],
      "name": "receiveWormholeMessages",
      "outputs": [],
      "stateMutability": "payable",
      "type": "function"
    },
    {
      "inputs": [],
      "name": "rewardEra",
      "outputs": [
        {
          "internalType": "uint256",
          "name": "",
          "type": "uint256"
        }
      ],
      "stateMutability": "view",
      "type": "function"
    },
    {
      "inputs": [
        {
          "internalType": "uint16",
          "name": "targetChain",
          "type": "uint16"
        },
        {
          "internalType": "uint256",
          "name": "amount",
          "type": "uint256"
        }
      ],
      "name": "sendWormholeCrossChainBridge",
      "outputs": [],
      "stateMutability": "payable",
      "type": "function"
    },
    {
      "inputs": [
        {
          "internalType": "bytes4",
          "name": "_interfaceId",
          "type": "bytes4"
        }
      ],
      "name": "supportsInterface",
      "outputs": [
        {
          "internalType": "bool",
          "name": "",
          "type": "bool"
        }
      ],
      "stateMutability": "view",
      "type": "function"
    },
    {
      "inputs": [],
      "name": "symbol",
      "outputs": [
        {
          "internalType": "string",
          "name": "",
          "type": "string"
        }
      ],
      "stateMutability": "view",
      "type": "function"
    },
    {
      "inputs": [],
      "name": "tokensMinted",
      "outputs": [
        {
          "internalType": "uint256",
          "name": "",
          "type": "uint256"
        }
      ],
      "stateMutability": "view",
      "type": "function"
    },
    {
      "inputs": [],
      "name": "totalSupply",
      "outputs": [
        {
          "internalType": "uint256",
          "name": "",
          "type": "uint256"
        }
      ],
      "stateMutability": "view",
      "type": "function"
    },
    {
      "inputs": [
        {
          "internalType": "address",
          "name": "to",
          "type": "address"
        },
        {
          "internalType": "uint256",
          "name": "value",
          "type": "uint256"
        }
      ],
      "name": "transfer",
      "outputs": [
        {
          "internalType": "bool",
          "name": "",
          "type": "bool"
        }
      ],
      "stateMutability": "nonpayable",
      "type": "function"
    },
    {
      "inputs": [
        {
          "internalType": "address",
          "name": "from",
          "type": "address"
        },
        {
          "internalType": "address",
          "name": "to",
          "type": "address"
        },
        {
          "internalType": "uint256",
          "name": "value",
          "type": "uint256"
        }
      ],
      "name": "transferFrom",
      "outputs": [
        {
          "internalType": "bool",
          "name": "",
          "type": "bool"
        }
      ],
      "stateMutability": "nonpayable",
      "type": "function"
    },
    {
      "inputs": [],
      "name": "wormholeRelayer",
      "outputs": [
        {
          "internalType": "contract IWormholeRelayer",
          "name": "",
          "type": "address"
        }
      ],
      "stateMutability": "view",
      "type": "function"
    },
    {
      "stateMutability": "payable",
      "type": "receive"
    }
  ],
  "bytecode": "0x61016060405234801561001157600080fd5b506040518060400160405280601781526020017f42726f63636f6c6920556e636861696e6564205465737400000000000000000081525080604051806040016040528060018152602001603160f81b8152506040518060400160405280601781526020017f42726f63636f6c6920556e636861696e6564205465737400000000000000000081525060405180604001604052806006815260200165109493d0d55560d21b81525081600390816100c791906104ea565b5060046100d482826104ea565b506100e4915083905060056103d1565b610120526100f38160066103d1565b61014052815160208084019190912060e052815190820120610100524660a05261018060e05161010051604080517f8b73c3c69bb8fe3d512ecc4cf759cc79239f7b179b0ffacaa9a75d522b39400f60208201529081019290925260608201524660808201523060a082015260009060c00160405160208183030381529060405280519060200120905090565b60805250503060c052506000600e819055600c556101a06012600a6106a5565b6101ac906103806106bb565b600d556101bb6012600a6106a5565b6101c69060016106bb565b60145562015180601555600160ea1b600a554360088190556101ea906001906106d2565b40600b557f3f11dd7f7d4c592e8f25c1295cf7e956c481c69b0baba359fb226d89abcaa0f2805460ff1990811660019081179092557f0a8934632a3df8fed3f005a75c3aec51e183a8170cacbd5e00c2df4adf38894a80548216831790557fdf30605f166c0132f44e4b020725a0488a65afc899bc02f721b14366d10a01c280548216831790557f11806663d7c5607b626c27a24f86cda4459ae540248b7a5578f7928743d2bbe08054909116909117905560176020527f0f01b8f5906b446c4064d973f7867371acfd5d01a95de61a91249145ea982e6d80546001600160a01b0319908116737b1bd7a6b4e61c2a123ac6bc2cbfc614437d0470179091557ffd4db9c961abf4266bd514d025e811f68b559d89dcd9d967e929feea5e2e57af805482167393bad53ddfb6132b0ac8e37f6029163e63372cee9081179091557fab1fd3b66dd1e8ee024e6e03a633ffb84a75ca98c89e811f97d8db2985e1a1068054831690911790557ffc005fa084dc75105d59b77460529cde2b8bc092a25dd672cd8c3c7981c3d4d5805482167380ac94316391752a193c1c47e27d382b507c93f31790554660009081526040902054601880549092166001600160a01b03919091161790556367b967e060198190556103c99062015180906106e5565b600f5561076a565b60006020835110156103ed576103e683610404565b90506103fe565b816103f884826104ea565b5060ff90505b92915050565b600080829050601f81511115610438578260405163305a27a960e01b815260040161042f91906106f8565b60405180910390fd5b805161044382610746565b179392505050565b634e487b7160e01b600052604160045260246000fd5b600181811c9082168061047557607f821691505b60208210810361049557634e487b7160e01b600052602260045260246000fd5b50919050565b601f8211156104e557806000526020600020601f840160051c810160208510156104c25750805b601f840160051c820191505b818110156104e257600081556001016104ce565b50505b505050565b81516001600160401b038111156105035761050361044b565b610517816105118454610461565b8461049b565b6020601f82116001811461054b57600083156105335750848201515b600019600385901b1c1916600184901b1784556104e2565b600084815260208120601f198516915b8281101561057b578785015182556020948501946001909201910161055b565b50848210156105995786840151600019600387901b60f8161c191681555b50505050600190811b01905550565b634e487b7160e01b600052601160045260246000fd5b6001815b60018411156105f9578085048111156105dd576105dd6105a8565b60018416156105eb57908102905b60019390931c9280026105c2565b935093915050565b600082610610575060016103fe565b8161061d575060006103fe565b8160018114610633576002811461063d57610659565b60019150506103fe565b60ff84111561064e5761064e6105a8565b50506001821b6103fe565b5060208310610133831016604e8410600b841016171561067c575081810a6103fe565b61068960001984846105be565b806000190482111561069d5761069d6105a8565b029392505050565b60006106b460ff841683610601565b9392505050565b80820281158282048414176103fe576103fe6105a8565b818103818111156103fe576103fe6105a8565b808201808211156103fe576103fe6105a8565b602081526000825180602084015260005b818110156107265760208186018101516040868401015201610709565b506000604082850101526040601f19601f83011684010191505092915050565b805160208083015191908110156104955760001960209190910360031b1b16919050565b60805160a05160c05160e051610100516101205161014051612ab66107c460003960006118be0152600061189101526000611839015260006118110152600061176c01526000611796015260006117c00152612ab66000f3fe60806040526004361061031e5760003560e01c80636de9f32b116101ab5780639c281430116100f7578063cb9ae70711610095578063d9d98ce41161006f578063d9d98ce4146108eb578063da25b7251461090b578063dc6e9cf91461092b578063dd62ed3e1461094257600080fd5b8063cb9ae7071461089f578063d505accf146108b5578063d8f812f0146108d557600080fd5b8063b5ade81b116100d1578063b5ade81b1461083d578063b723b34e14610853578063bafedcaa14610873578063caa7a1581461088957600080fd5b80639c281430146107f4578063a9059cbb1461080a578063aa56c1df1461082a57600080fd5b8063829965cc116101645780638a769d351161013e5780638a769d35146107865780638a8772051461079c5780638ae0368b146107c957806395d89b41146107df57600080fd5b8063829965cc1461073057806384b0196e1461074657806387a2a9d61461076e57600080fd5b80636de9f32b146106565780636fd396d61461066c57806370a08231146106a457806379cc6790146106da5780637e36320b146106fa5780637ecebe001461071057600080fd5b8063294867b91161026a5780633adde9c111610223578063529dca32116101fd578063529dca32146105ee5780635cffe9de14610601578063613255ab146106215780636386d2ac1461064157600080fd5b80633adde9c1146105a257806342966c68146105b95780634ef37628146105d957600080fd5b8063294867b9146105105780632b8c49e3146105265780632d38bf7a14610546578063313ce5671461055c57806332e99708146105785780633644e5151461058d57600080fd5b806317da485f116102d757806318bf5077116102b157806318bf50771461047e5780631eaf8b4b146104a057806323b872dd146104c057806326f3eb3c146104e057600080fd5b806317da485f146104345780631801fbe51461044957806318160ddd1461046957600080fd5b806301ffc9a71461036e57806306fdde03146103a3578063095ea7b3146103c5578063114cccd2146103e557806313eda8fc14610409578063163aa00d1461041e57600080fd5b366103695760405162461bcd60e51b81526020600482015260166024820152754e6f2064697265637420455448206465706f7369747360501b60448201526064015b60405180910390fd5b600080fd5b34801561037a57600080fd5b5061038e6103893660046121b4565b610988565b60405190151581526020015b60405180910390f35b3480156103af57600080fd5b506103b86109da565b60405161039a9190612224565b3480156103d157600080fd5b5061038e6103e036600461224c565b610a6c565b3480156103f157600080fd5b506103fb60001981565b60405190815260200161039a565b34801561041557600080fd5b5061038e610a84565b34801561042a57600080fd5b506103fb60125481565b34801561044057600080fd5b506103fb610b15565b34801561045557600080fd5b5061038e610464366004612278565b610b2e565b34801561047557600080fd5b506002546103fb565b34801561048a57600080fd5b5061049e61049936600461224c565b610be9565b005b3480156104ac57600080fd5b506103fb6104bb3660046122b1565b610c5e565b3480156104cc57600080fd5b5061038e6104db3660046122cc565b610ce5565b3480156104ec57600080fd5b5061038e6104fb36600461230d565b60166020526000908152604090205460ff1681565b34801561051c57600080fd5b506103fb600f5481565b34801561053257600080fd5b5061049e61054136600461224c565b610d09565b34801561055257600080fd5b506103fb600c5481565b34801561056857600080fd5b506040516012815260200161039a565b34801561058457600080fd5b50600a546103fb565b34801561059957600080fd5b506103fb610d76565b3480156105ae57600080fd5b506103fb6201518081565b3480156105c557600080fd5b5061049e6105d436600461230d565b610d80565b3480156105e557600080fd5b50600b546103fb565b61049e6105fc3660046123dd565b610d8d565b34801561060d57600080fd5b5061038e61061c3660046124fe565b610ec3565b34801561062d57600080fd5b506103fb61063c36600461259f565b61103b565b34801561064d57600080fd5b50600e546103fb565b34801561066257600080fd5b506103fb600e5481565b34801561067857600080fd5b5060105461068c906001600160a01b031681565b6040516001600160a01b03909116815260200161039a565b3480156106b057600080fd5b506103fb6106bf36600461259f565b6001600160a01b031660009081526020819052604090205490565b3480156106e657600080fd5b5061049e6106f536600461224c565b611063565b34801561070657600080fd5b506103fb60155481565b34801561071c57600080fd5b506103fb61072b36600461259f565b61107c565b34801561073c57600080fd5b506103fb60095481565b34801561075257600080fd5b5061075b61109a565b60405161039a97969594939291906125bc565b34801561077a57600080fd5b506103fb600160ea1b81565b34801561079257600080fd5b506103fb600a5481565b3480156107a857600080fd5b506103fb6107b736600461259f565b60136020526000908152604090205481565b3480156107d557600080fd5b506103fb600b5481565b3480156107eb57600080fd5b506103b86110e0565b34801561080057600080fd5b506103fb60145481565b34801561081657600080fd5b5061038e61082536600461224c565b6110ef565b61049e610838366004612654565b6110fd565b34801561084957600080fd5b506103fb61040081565b34801561085f57600080fd5b5061038e61086e366004612670565b611221565b34801561087f57600080fd5b506103fb60115481565b34801561089557600080fd5b506103fb600d5481565b3480156108ab57600080fd5b506103fb60085481565b3480156108c157600080fd5b5061049e6108d03660046126a0565b61148a565b3480156108e157600080fd5b506103fb60195481565b3480156108f757600080fd5b506103fb61090636600461224c565b6115c4565b34801561091757600080fd5b5060185461068c906001600160a01b031681565b34801561093757600080fd5b506103fb6201000081565b34801561094e57600080fd5b506103fb61095d366004612717565b6001600160a01b03918216600090815260016020908152604080832093909416825291909152205490565b60006001600160e01b03198216630cccc66560e21b14806109b957506001600160e01b031982166336372b0760e01b145b806109d457506001600160e01b031982166301ffc9a760e01b145b92915050565b6060600380546109e990612745565b80601f0160208091040260200160405190810160405280929190818152602001828054610a1590612745565b8015610a625780601f10610a3757610100808354040283529160200191610a62565b820191906000526020600020905b815481529060010190602001808311610a4557829003601f168201915b5050505050905090565b600033610a7a818585611604565b5060019392505050565b601554336000908152601360205260408120549091610aa291612795565b421015610af15760405162461bcd60e51b815260206004820152601f60248201527f4661756365743a20636f6f6c646f776e20706572696f64206e6f74206d6574006044820152606401610360565b610afd33601454611616565b50336000908152601360205260409020429055600190565b6000600a54600160ea1b610b2991906127be565b905090565b4660009081526016602052604081205460ff16610b8d5760405162461bcd60e51b815260206004820181905260248201527f4d696e696e67206e6f7420616c6c6f776564206f6e207468697320636861696e6044820152606401610360565b601954421015610bd85760405162461bcd60e51b8152602060048201526016602482015275135a5b9a5b99c81b9bdd081cdd185c9d1959081e595d60521b6044820152606401610360565b610be28333611221565b9392505050565b336028602160991b0114610c0f576040516282b42960e81b815260040160405180910390fd5b610c198282611616565b60405181815233906001600160a01b038416907fde22baff038e3a3e08407cbdf617deed74e869a7ba517df611e33131c6e6ea04906020015b60405180910390a35050565b60185460405163c23ee3c360e01b815261ffff83166004820152600060248201819052620186a06044830152916001600160a01b03169063c23ee3c3906064016040805180830381865afa158015610cba573d6000803e3d6000fd5b505050506040513d601f19601f82011682018060405250810190610cde91906127d2565b5092915050565b600033610cf385828561164c565b610cfe8585856116ca565b506001949350505050565b336028602160991b0114610d2f576040516282b42960e81b815260040160405180910390fd5b610d398282611729565b60405181815233906001600160a01b038416907fb90795a66650155983e242cac3e1ac1a4dc26f8ed2987f3ce416a34e00111fd490602001610c52565b6000610b2961175f565b610d8a3382611729565b50565b82308114610dd55760405162461bcd60e51b81526020600482015260156024820152742737ba103932b3b4b9ba32b932b21039b2b73232b960591b6044820152606401610360565b6018546001600160a01b03163314610e485760405162461bcd60e51b815260206004820152603060248201527f4f6e6c792074686520576f726d686f6c652072656c617965722063616e20636160448201526f3636103a3434b990333ab731ba34b7b760811b6064820152608401610360565b60008087806020019051810190610e5f91906127f6565b9092509050610e6e8183611616565b604080518381526001600160a01b038316602082015261ffff87168183015290517f02f882dcf6297baca7a2338fb6ce8c47c9dabd2e68a1a3442db78850ce6bb21f9181900360600190a15050505050505050565b600080610ecf8661103b565b905080851115610ef55760405163fd9a760960e01b815260048101829052602401610360565b6000610f0187876115c4565b9050610f0d8887611616565b6040516323e30c8b60e01b81527f439148f0bbc682ca079e46d6e2c2f0c1e3b820f1a291b069d8882abf8cf18dd9906001600160a01b038a16906323e30c8b90610f659033908c908c9088908d908d9060040161281c565b6020604051808303816000875af1158015610f84573d6000803e3d6000fd5b505050506040513d601f19601f82011682018060405250810190610fa89190612875565b14610fd05760405162678c5b60e81b81526001600160a01b0389166004820152602401610360565b6000610fe68930610fe1858b612795565b61164c565b811580610ffa57506001600160a01b038116155b15611017576110128961100d848a612795565b611729565b61102c565b6110218988611729565b61102c8982846116ca565b50600198975050505050505050565b60006001600160a01b03821630146110545760006109d4565b6002546109d49060001961288e565b61106e82338361164c565b6110788282611729565b5050565b6001600160a01b0381166000908152600760205260408120546109d4565b6000606080600080600060606110ae61188a565b6110b66118b7565b60408051600080825260208201909252600f60f81b9b939a50919850469750309650945092509050565b6060600480546109e990612745565b600033610a7a8185856116ca565b600061110883610c5e565b9050333482111561116f5760405162461bcd60e51b815260206004820152602b60248201527f496e73756666696369656e742066756e647320666f722063726f73732d63686160448201526a696e2064656c697665727960a81b6064820152608401610360565b6111798184611729565b60185460408051602081018690526001600160a01b038481168284015282518083038401815260608301938490526347f66e8160e11b90935290921691638fecdd029185916111d7918991309190600090620186a0906064016128a1565b60206040518083038185885af11580156111f5573d6000803e3d6000fd5b50505050506040513d601f19601f8201168201806040525081019061121a91906128e3565b5050505050565b4660009081526016602052604081205460ff166112805760405162461bcd60e51b815260206004820181905260248201527f4d696e696e67206e6f7420616c6c6f776564206f6e207468697320636861696e6044820152606401610360565b6019544210156112cb5760405162461bcd60e51b8152602060048201526016602482015275135a5b9a5b99c81b9bdd081cdd185c9d1959081e595d60521b6044820152606401610360565b600d546112da9060001961288e565b600d546002546112ea9190612795565b101561148257600b5460408051602080820193909352606085901b6bffffffffffffffffffffffff19168183015260548082018790528251808303909101815260749091019091528051910120600a548111156113815760405162461bcd60e51b8152602060048201526015602482015274111a59d95cdd08195e18d959591cc81d185c99d95d605a1b6044820152606401610360565b43601254036113d25760405162461bcd60e51b815260206004820152601e60248201527f416c726561647920726577617264656420696e207468697320626c6f636b00006044820152606401610360565b6113de83600d54611616565b600d54600e60008282546113f29190612795565b9091555050601080546001600160a01b0319166001600160a01b038516179055600d54601155436012556114246118e4565b600d54600954600b54604080519384526020840192909252908201526001600160a01b038416907fcf6fbb9dcea7d07263ab4f5c3a92f53af33dffc421d9d121e1c74b307e68189d9060600160405180910390a260019150506109d4565b5060006109d4565b834211156114ae5760405163313c898160e11b815260048101859052602401610360565b60007f6e71edae12b1b97f4d1f60370fef10105fa2faae0126114a169c64845d6126c98888886114fb8c6001600160a01b0316600090815260076020526040902080546001810190915590565b6040805160208101969096526001600160a01b0394851690860152929091166060840152608083015260a082015260c0810186905260e001604051602081830303815290604052805190602001209050600061155682611aba565b9050600061156682878787611ae7565b9050896001600160a01b0316816001600160a01b0316146115ad576040516325c0072360e11b81526001600160a01b0380831660048301528b166024820152604401610360565b6115b88a8a8a611604565b50505050505050505050565b60006001600160a01b03831630146115fa57604051635ad3edc960e11b81526001600160a01b0384166004820152602401610360565b610be28383611b15565b6116118383836001611ba1565b505050565b6001600160a01b0382166116405760405163ec442f0560e01b815260006004820152602401610360565b61107860008383611c76565b6001600160a01b0383811660009081526001602090815260408083209386168352929052205460001981146116c457818110156116b557604051637dc7a0d960e11b81526001600160a01b03841660048201526024810182905260448101839052606401610360565b6116c484848484036000611ba1565b50505050565b6001600160a01b0383166116f457604051634b637e8f60e11b815260006004820152602401610360565b6001600160a01b03821661171e5760405163ec442f0560e01b815260006004820152602401610360565b611611838383611c76565b6001600160a01b03821661175357604051634b637e8f60e11b815260006004820152602401610360565b61107882600083611c76565b6000306001600160a01b037f0000000000000000000000000000000000000000000000000000000000000000161480156117b857507f000000000000000000000000000000000000000000000000000000000000000046145b156117e257507f000000000000000000000000000000000000000000000000000000000000000090565b610b29604080517f8b73c3c69bb8fe3d512ecc4cf759cc79239f7b179b0ffacaa9a75d522b39400f60208201527f0000000000000000000000000000000000000000000000000000000000000000918101919091527f000000000000000000000000000000000000000000000000000000000000000060608201524660808201523060a082015260009060c00160405160208183030381529060405280519060200120905090565b6060610b297f00000000000000000000000000000000000000000000000000000000000000006005611da0565b6060610b297f00000000000000000000000000000000000000000000000000000000000000006006611da0565b600f5442101580156118f857506019544210155b15611a0757600c805490600061190d8361290d565b91905055506000600c5460026119239190612a0d565b61192f6012600a612a19565b61193b90610380612a28565b61194591906127be565b90506119536012600a612a19565b61195e906007612a28565b8110156119a057600c805490600061197583612a3f565b9190505550611982601290565b61198d90600a612a19565b611998906007612a28565b600d556119a6565b600d8190555b62015180600f60008282546119bb9190612795565b9091555050600d54600c546040517f3efe2b1ade87153c913a322f09a35c930d7fd699770b8d7cdd294e1debf6e9e4926119fd92908252602082015260400190565b60405180910390a1505b60001960095410611a1c576000600955611a32565b60098054906000611a2c8361290d565b91905055505b610400600954611a429190612a56565b600003611a6657600060085443611a59919061288e565b9050611a6481611e4b565b505b611a7160014361288e565b40600b8190556009546040517fd55a127469a90026709eb7e8f26aa1c8458a202c071f385af1989f3217d3918392611ab0928252602082015260400190565b60405180910390a1565b60006109d4611ac761175f565b8360405161190160f01b8152600281019290925260228201526042902090565b600080600080611af988888888611faf565b925092509250611b09828261207e565b50909695505050505050565b60006001600160a01b0383163014611b795760405162461bcd60e51b815260206004820152602160248201527f4552433230466c6173684d696e743a20556e737570706f7274656420746f6b656044820152603760f91b6064820152608401610360565b6127108211611b89576001610be2565b612710611b97600184612a28565b610be291906127be565b6001600160a01b038416611bcb5760405163e602df0560e01b815260006004820152602401610360565b6001600160a01b038316611bf557604051634a1406b160e11b815260006004820152602401610360565b6001600160a01b03808516600090815260016020908152604080832093871683529290522082905580156116c457826001600160a01b0316846001600160a01b03167f8c5be1e5ebec7d5bd14f71427d1e84f3dd0314c0f7b2291e5b200ac8c7c3b92584604051611c6891815260200190565b60405180910390a350505050565b6001600160a01b038316611ca1578060026000828254611c969190612795565b90915550611d139050565b6001600160a01b03831660009081526020819052604090205481811015611cf45760405163391434e360e21b81526001600160a01b03851660048201526024810182905260448101839052606401610360565b6001600160a01b03841660009081526020819052604090209082900390555b6001600160a01b038216611d2f57600280548290039055611d4e565b6001600160a01b03821660009081526020819052604090208054820190555b816001600160a01b0316836001600160a01b03167fddf252ad1be2c89b69c2b068fc378daa952ba7f163c4a11628f55a4df523b3ef83604051611d9391815260200190565b60405180910390a3505050565b606060ff8314611dba57611db383612137565b90506109d4565b818054611dc690612745565b80601f0160208091040260200160405190810160405280929190818152602001828054611df290612745565b8015611e3f5780601f10611e1457610100808354040283529160200191611e3f565b820191906000526020600020905b815481529060010190602001808311611e2257829003601f168201915b505050505090506109d4565b6000611e5a610400603c612a28565b905080821015611ecc57600082611e72836064612a28565b611e7c91906127be565b90506000611e976103e8611e9160648561288e565b90612176565b9050806107d0600a54611eaa91906127be565b611eb49190612a28565b600a54611ec1919061288e565b600a5550611f299050565b600081611eda846064612a28565b611ee491906127be565b90506000611ef96103e8611e9160648561288e565b9050806107d0600a54611f0c91906127be565b611f169190612a28565b600a54611f239190612795565b600a5550505b43600855600a54620100001115611f425762010000600a555b600160ea1b600a541115611f5957600160ea1b600a555b600a547f8354831842174c9eb4b9d1af2734d3e6d8a28b0bd7dd4dca155e5a66134b658590611f8c81600160ea1b6127be565b604080519283526020830191909152810184905260600160405180910390a15050565b600080807f7fffffffffffffffffffffffffffffff5d576e7357a4501ddfe92f46681b20a0841115611fea5750600091506003905082612074565b604080516000808252602082018084528a905260ff891692820192909252606081018790526080810186905260019060a0016020604051602081039080840390855afa15801561203e573d6000803e3d6000fd5b5050604051601f1901519150506001600160a01b03811661206a57506000925060019150829050612074565b9250600091508190505b9450945094915050565b600082600381111561209257612092612a6a565b0361209b575050565b60018260038111156120af576120af612a6a565b036120cd5760405163f645eedf60e01b815260040160405180910390fd5b60028260038111156120e1576120e1612a6a565b036121025760405163fce698f760e01b815260048101829052602401610360565b600382600381111561211657612116612a6a565b03611078576040516335e2f38360e21b815260048101829052602401610360565b606060006121448361218c565b604080516020808252818301909252919250600091906020820181803683375050509182525060208101929092525090565b60008183106121855781610be2565b5090919050565b600060ff8216601f8111156109d457604051632cd44ac360e21b815260040160405180910390fd5b6000602082840312156121c657600080fd5b81356001600160e01b031981168114610be257600080fd5b6000815180845260005b81811015612204576020818501810151868301820152016121e8565b506000602082860101526020601f19601f83011685010191505092915050565b602081526000610be260208301846121de565b6001600160a01b0381168114610d8a57600080fd5b6000806040838503121561225f57600080fd5b823561226a81612237565b946020939093013593505050565b6000806040838503121561228b57600080fd5b50508035926020909101359150565b803561ffff811681146122ac57600080fd5b919050565b6000602082840312156122c357600080fd5b610be28261229a565b6000806000606084860312156122e157600080fd5b83356122ec81612237565b925060208401356122fc81612237565b929592945050506040919091013590565b60006020828403121561231f57600080fd5b5035919050565b634e487b7160e01b600052604160045260246000fd5b604051601f8201601f1916810167ffffffffffffffff8111828210171561236557612365612326565b604052919050565b600082601f83011261237e57600080fd5b813567ffffffffffffffff81111561239857612398612326565b6123ab601f8201601f191660200161233c565b8181528460208386010111156123c057600080fd5b816020850160208301376000918101602001919091529392505050565b600080600080600060a086880312156123f557600080fd5b853567ffffffffffffffff81111561240c57600080fd5b6124188882890161236d565b955050602086013567ffffffffffffffff81111561243557600080fd5b8601601f8101881361244657600080fd5b803567ffffffffffffffff81111561246057612460612326565b8060051b6124706020820161233c565b9182526020818401810192908101908b84111561248c57600080fd5b6020850192505b838310156124d357823567ffffffffffffffff8111156124b257600080fd5b6124c18d60208389010161236d565b83525060209283019290910190612493565b9750505050604087013593506124ed90506060870161229a565b949793965091946080013592915050565b60008060008060006080868803121561251657600080fd5b853561252181612237565b9450602086013561253181612237565b935060408601359250606086013567ffffffffffffffff81111561255457600080fd5b8601601f8101881361256557600080fd5b803567ffffffffffffffff81111561257c57600080fd5b88602082840101111561258e57600080fd5b959894975092955050506020019190565b6000602082840312156125b157600080fd5b8135610be281612237565b60ff60f81b8816815260e0602082015260006125db60e08301896121de565b82810360408401526125ed81896121de565b606084018890526001600160a01b038716608085015260a0840186905283810360c08501528451808252602080870193509091019060005b81811015612643578351835260209384019390920191600101612625565b50909b9a5050505050505050505050565b6000806040838503121561266757600080fd5b61226a8361229a565b6000806040838503121561268357600080fd5b82359150602083013561269581612237565b809150509250929050565b600080600080600080600060e0888a0312156126bb57600080fd5b87356126c681612237565b965060208801356126d681612237565b95506040880135945060608801359350608088013560ff811681146126fa57600080fd5b9699959850939692959460a0840135945060c09093013592915050565b6000806040838503121561272a57600080fd5b823561273581612237565b9150602083013561269581612237565b600181811c9082168061275957607f821691505b60208210810361277957634e487b7160e01b600052602260045260246000fd5b50919050565b634e487b7160e01b600052601160045260246000fd5b808201808211156109d4576109d461277f565b634e487b7160e01b600052601260045260246000fd5b6000826127cd576127cd6127a8565b500490565b600080604083850312156127e557600080fd5b505080516020909101519092909150565b6000806040838503121561280957600080fd5b8251602084015190925061269581612237565b6001600160a01b03878116825286166020820152604081018590526060810184905260a0608082018190528101829052818360c0830137600081830160c090810191909152601f909201601f1916010195945050505050565b60006020828403121561288757600080fd5b5051919050565b818103818111156109d4576109d461277f565b61ffff861681526001600160a01b038516602082015260a0604082018190526000906128cf908301866121de565b606083019490945250608001529392505050565b6000602082840312156128f557600080fd5b815167ffffffffffffffff81168114610be257600080fd5b60006001820161291f5761291f61277f565b5060010190565b6001815b6001841115612961578085048111156129455761294561277f565b600184161561295357908102905b60019390931c92800261292a565b935093915050565b600082612978575060016109d4565b81612985575060006109d4565b816001811461299b57600281146129a5576129c1565b60019150506109d4565b60ff8411156129b6576129b661277f565b50506001821b6109d4565b5060208310610133831016604e8410600b84101617156129e4575081810a6109d4565b6129f16000198484612926565b8060001904821115612a0557612a0561277f565b029392505050565b6000610be28383612969565b6000610be260ff841683612969565b80820281158282048414176109d4576109d461277f565b600081612a4e57612a4e61277f565b506000190190565b600082612a6557612a656127a8565b500690565b634e487b7160e01b600052602160045260246000fdfea26469706673582212201cbc37a136f8c37a2d49a7ebfc0d1c3650943d11b50c98e8637e84943bdb1ece64736f6c634300081c0033",
  "linkReferences": {},
  "deployedLinkReferences": {}
}