{
  "_format": "hh-sol-artifact-1",
  "contractName": "BroccoliUnchainedSepolia",
  "sourceName": "contracts/BroccoliUnchainedSepolia.sol",
  "abi": [
    {
      "inputs": [],
      "stateMutability": "nonpayable",
      "type": "constructor"
    },
    {
      "inputs": [],
      "name": "ECDSAInvalidSignature",
      "type": "error"
    },
    {
      "inputs": [
        {
          "internalType": "uint256",
          "name": "length",
          "type": "uint256"
        }
      ],
      "name": "ECDSAInvalidSignatureLength",
      "type": "error"
    },
    {
      "inputs": [
        {
          "internalType": "bytes32",
          "name": "s",
          "type": "bytes32"
        }
      ],
      "name": "ECDSAInvalidSignatureS",
      "type": "error"
    },
    {
      "inputs": [
        {
          "internalType": "address",
          "name": "spender",
          "type": "address"
        },
        {
          "internalType": "uint256",
          "name": "allowance",
          "type": "uint256"
        },
        {
          "internalType": "uint256",
          "name": "needed",
          "type": "uint256"
        }
      ],
      "name": "ERC20InsufficientAllowance",
      "type": "error"
    },
    {
      "inputs": [
        {
          "internalType": "address",
          "name": "sender",
          "type": "address"
        },
        {
          "internalType": "uint256",
          "name": "balance",
          "type": "uint256"
        },
        {
          "internalType": "uint256",
          "name": "needed",
          "type": "uint256"
        }
      ],
      "name": "ERC20InsufficientBalance",
      "type": "error"
    },
    {
      "inputs": [
        {
          "internalType": "address",
          "name": "approver",
          "type": "address"
        }
      ],
      "name": "ERC20InvalidApprover",
      "type": "error"
    },
    {
      "inputs": [
        {
          "internalType": "address",
          "name": "receiver",
          "type": "address"
        }
      ],
      "name": "ERC20InvalidReceiver",
      "type": "error"
    },
    {
      "inputs": [
        {
          "internalType": "address",
          "name": "sender",
          "type": "address"
        }
      ],
      "name": "ERC20InvalidSender",
      "type": "error"
    },
    {
      "inputs": [
        {
          "internalType": "address",
          "name": "spender",
          "type": "address"
        }
      ],
      "name": "ERC20InvalidSpender",
      "type": "error"
    },
    {
      "inputs": [
        {
          "internalType": "uint256",
          "name": "deadline",
          "type": "uint256"
        }
      ],
      "name": "ERC2612ExpiredSignature",
      "type": "error"
    },
    {
      "inputs": [
        {
          "internalType": "address",
          "name": "signer",
          "type": "address"
        },
        {
          "internalType": "address",
          "name": "owner",
          "type": "address"
        }
      ],
      "name": "ERC2612InvalidSigner",
      "type": "error"
    },
    {
      "inputs": [
        {
          "internalType": "uint256",
          "name": "maxLoan",
          "type": "uint256"
        }
      ],
      "name": "ERC3156ExceededMaxLoan",
      "type": "error"
    },
    {
      "inputs": [
        {
          "internalType": "address",
          "name": "receiver",
          "type": "address"
        }
      ],
      "name": "ERC3156InvalidReceiver",
      "type": "error"
    },
    {
      "inputs": [
        {
          "internalType": "address",
          "name": "token",
          "type": "address"
        }
      ],
      "name": "ERC3156UnsupportedToken",
      "type": "error"
    },
    {
      "inputs": [
        {
          "internalType": "address",
          "name": "account",
          "type": "address"
        },
        {
          "internalType": "uint256",
          "name": "currentNonce",
          "type": "uint256"
        }
      ],
      "name": "InvalidAccountNonce",
      "type": "error"
    },
    {
      "inputs": [],
      "name": "InvalidShortString",
      "type": "error"
    },
    {
      "inputs": [
        {
          "internalType": "string",
          "name": "str",
          "type": "string"
        }
      ],
      "name": "StringTooLong",
      "type": "error"
    },
    {
      "anonymous": false,
      "inputs": [
        {
          "indexed": true,
          "internalType": "address",
          "name": "owner",
          "type": "address"
        },
        {
          "indexed": true,
          "internalType": "address",
          "name": "spender",
          "type": "address"
        },
        {
          "indexed": false,
          "internalType": "uint256",
          "name": "value",
          "type": "uint256"
        }
      ],
      "name": "Approval",
      "type": "event"
    },
    {
      "anonymous": false,
      "inputs": [
        {
          "indexed": false,
          "internalType": "uint256",
          "name": "amount",
          "type": "uint256"
        },
        {
          "indexed": false,
          "internalType": "address",
          "name": "owner",
          "type": "address"
        },
        {
          "indexed": false,
          "internalType": "uint16",
          "name": "sourceChain",
          "type": "uint16"
        }
      ],
      "name": "CrossChainReceived",
      "type": "event"
    },
    {
      "anonymous": false,
      "inputs": [
        {
          "indexed": false,
          "internalType": "uint256",
          "name": "newTarget",
          "type": "uint256"
        },
        {
          "indexed": false,
          "internalType": "uint256",
          "name": "newDifficulty",
          "type": "uint256"
        },
        {
          "indexed": false,
          "internalType": "uint256",
          "name": "ethBlocksSinceLastDifficultyPeriod",
          "type": "uint256"
        }
      ],
      "name": "DifficultyAdjusted",
      "type": "event"
    },
    {
      "anonymous": false,
      "inputs": [],
      "name": "EIP712DomainChanged",
      "type": "event"
    },
    {
      "anonymous": false,
      "inputs": [
        {
          "indexed": true,
          "internalType": "address",
          "name": "from",
          "type": "address"
        },
        {
          "indexed": false,
          "internalType": "uint256",
          "name": "rewardAmount",
          "type": "uint256"
        },
        {
          "indexed": false,
          "internalType": "uint256",
          "name": "epochCount",
          "type": "uint256"
        },
        {
          "indexed": false,
          "internalType": "bytes32",
          "name": "newChallengeNumber",
          "type": "bytes32"
        }
      ],
      "name": "Mint",
      "type": "event"
    },
    {
      "anonymous": false,
      "inputs": [
        {
          "indexed": false,
          "internalType": "uint256",
          "name": "epochCount",
          "type": "uint256"
        },
        {
          "indexed": false,
          "internalType": "bytes32",
          "name": "challengeNumber",
          "type": "bytes32"
        }
      ],
      "name": "NewEpochStarted",
      "type": "event"
    },
    {
      "anonymous": false,
      "inputs": [
        {
          "indexed": false,
          "internalType": "uint256",
          "name": "newReward",
          "type": "uint256"
        },
        {
          "indexed": false,
          "internalType": "uint256",
          "name": "rewardEra",
          "type": "uint256"
        }
      ],
      "name": "RewardUpdated",
      "type": "event"
    },
    {
      "anonymous": false,
      "inputs": [
        {
          "indexed": true,
          "internalType": "address",
          "name": "from",
          "type": "address"
        },
        {
          "indexed": true,
          "internalType": "address",
          "name": "to",
          "type": "address"
        },
        {
          "indexed": false,
          "internalType": "uint256",
          "name": "value",
          "type": "uint256"
        }
      ],
      "name": "Transfer",
      "type": "event"
    },
    {
      "inputs": [],
      "name": "DOMAIN_SEPARATOR",
      "outputs": [
        {
          "internalType": "bytes32",
          "name": "",
          "type": "bytes32"
        }
      ],
      "stateMutability": "view",
      "type": "function"
    },
    {
      "inputs": [],
      "name": "HALVING_PERIOD",
      "outputs": [
        {
          "internalType": "uint256",
          "name": "",
          "type": "uint256"
        }
      ],
      "stateMutability": "view",
      "type": "function"
    },
    {
      "inputs": [],
      "name": "MAX_LIMIT",
      "outputs": [
        {
          "internalType": "uint256",
          "name": "",
          "type": "uint256"
        }
      ],
      "stateMutability": "view",
      "type": "function"
    },
    {
      "inputs": [],
      "name": "_BLOCKS_PER_READJUSTMENT",
      "outputs": [
        {
          "internalType": "uint256",
          "name": "",
          "type": "uint256"
        }
      ],
      "stateMutability": "view",
      "type": "function"
    },
    {
      "inputs": [],
      "name": "_MAXIMUM_TARGET",
      "outputs": [
        {
          "internalType": "uint256",
          "name": "",
          "type": "uint256"
        }
      ],
      "stateMutability": "view",
      "type": "function"
    },
    {
      "inputs": [],
      "name": "_MINIMUM_TARGET",
      "outputs": [
        {
          "internalType": "uint256",
          "name": "",
          "type": "uint256"
        }
      ],
      "stateMutability": "view",
      "type": "function"
    },
    {
      "inputs": [
        {
          "internalType": "address",
          "name": "owner",
          "type": "address"
        },
        {
          "internalType": "address",
          "name": "spender",
          "type": "address"
        }
      ],
      "name": "allowance",
      "outputs": [
        {
          "internalType": "uint256",
          "name": "",
          "type": "uint256"
        }
      ],
      "stateMutability": "view",
      "type": "function"
    },
    {
      "inputs": [
        {
          "internalType": "uint256",
          "name": "",
          "type": "uint256"
        }
      ],
      "name": "allowedChains",
      "outputs": [
        {
          "internalType": "bool",
          "name": "",
          "type": "bool"
        }
      ],
      "stateMutability": "view",
      "type": "function"
    },
    {
      "inputs": [
        {
          "internalType": "address",
          "name": "spender",
          "type": "address"
        },
        {
          "internalType": "uint256",
          "name": "value",
          "type": "uint256"
        }
      ],
      "name": "approve",
      "outputs": [
        {
          "internalType": "bool",
          "name": "",
          "type": "bool"
        }
      ],
      "stateMutability": "nonpayable",
      "type": "function"
    },
    {
      "inputs": [
        {
          "internalType": "address",
          "name": "account",
          "type": "address"
        }
      ],
      "name": "balanceOf",
      "outputs": [
        {
          "internalType": "uint256",
          "name": "",
          "type": "uint256"
        }
      ],
      "stateMutability": "view",
      "type": "function"
    },
    {
      "inputs": [
        {
          "internalType": "uint256",
          "name": "value",
          "type": "uint256"
        }
      ],
      "name": "burn",
      "outputs": [],
      "stateMutability": "nonpayable",
      "type": "function"
    },
    {
      "inputs": [
        {
          "internalType": "address",
          "name": "account",
          "type": "address"
        },
        {
          "internalType": "uint256",
          "name": "value",
          "type": "uint256"
        }
      ],
      "name": "burnFrom",
      "outputs": [],
      "stateMutability": "nonpayable",
      "type": "function"
    },
    {
      "inputs": [],
      "name": "challengeNumber",
      "outputs": [
        {
          "internalType": "bytes32",
          "name": "",
          "type": "bytes32"
        }
      ],
      "stateMutability": "view",
      "type": "function"
    },
    {
      "inputs": [],
      "name": "currentMiningReward",
      "outputs": [
        {
          "internalType": "uint256",
          "name": "",
          "type": "uint256"
        }
      ],
      "stateMutability": "view",
      "type": "function"
    },
    {
      "inputs": [],
      "name": "decimals",
      "outputs": [
        {
          "internalType": "uint8",
          "name": "",
          "type": "uint8"
        }
      ],
      "stateMutability": "view",
      "type": "function"
    },
    {
      "inputs": [],
      "name": "eip712Domain",
      "outputs": [
        {
          "internalType": "bytes1",
          "name": "fields",
          "type": "bytes1"
        },
        {
          "internalType": "string",
          "name": "name",
          "type": "string"
        },
        {
          "internalType": "string",
          "name": "version",
          "type": "string"
        },
        {
          "internalType": "uint256",
          "name": "chainId",
          "type": "uint256"
        },
        {
          "internalType": "address",
          "name": "verifyingContract",
          "type": "address"
        },
        {
          "internalType": "bytes32",
          "name": "salt",
          "type": "bytes32"
        },
        {
          "internalType": "uint256[]",
          "name": "extensions",
          "type": "uint256[]"
        }
      ],
      "stateMutability": "view",
      "type": "function"
    },
    {
      "inputs": [],
      "name": "epochCount",
      "outputs": [
        {
          "internalType": "uint256",
          "name": "",
          "type": "uint256"
        }
      ],
      "stateMutability": "view",
      "type": "function"
    },
    {
      "inputs": [],
      "name": "faucetAmount",
      "outputs": [
        {
          "internalType": "uint256",
          "name": "",
          "type": "uint256"
        }
      ],
      "stateMutability": "view",
      "type": "function"
    },
    {
      "inputs": [],
      "name": "faucetCooldown",
      "outputs": [
        {
          "internalType": "uint256",
          "name": "",
          "type": "uint256"
        }
      ],
      "stateMutability": "view",
      "type": "function"
    },
    {
      "inputs": [],
      "name": "faucetMint",
      "outputs": [
        {
          "internalType": "bool",
          "name": "success",
          "type": "bool"
        }
      ],
      "stateMutability": "nonpayable",
      "type": "function"
    },
    {
      "inputs": [
        {
          "internalType": "address",
          "name": "token",
          "type": "address"
        },
        {
          "internalType": "uint256",
          "name": "value",
          "type": "uint256"
        }
      ],
      "name": "flashFee",
      "outputs": [
        {
          "internalType": "uint256",
          "name": "",
          "type": "uint256"
        }
      ],
      "stateMutability": "view",
      "type": "function"
    },
    {
      "inputs": [
        {
          "internalType": "contract IERC3156FlashBorrower",
          "name": "receiver",
          "type": "address"
        },
        {
          "internalType": "address",
          "name": "token",
          "type": "address"
        },
        {
          "internalType": "uint256",
          "name": "value",
          "type": "uint256"
        },
        {
          "internalType": "bytes",
          "name": "data",
          "type": "bytes"
        }
      ],
      "name": "flashLoan",
      "outputs": [
        {
          "internalType": "bool",
          "name": "",
          "type": "bool"
        }
      ],
      "stateMutability": "nonpayable",
      "type": "function"
    },
    {
      "inputs": [],
      "name": "getChallengeNumber",
      "outputs": [
        {
          "internalType": "bytes32",
          "name": "",
          "type": "bytes32"
        }
      ],
      "stateMutability": "view",
      "type": "function"
    },
    {
      "inputs": [],
      "name": "getMiningDifficulty",
      "outputs": [
        {
          "internalType": "uint256",
          "name": "",
          "type": "uint256"
        }
      ],
      "stateMutability": "view",
      "type": "function"
    },
    {
      "inputs": [],
      "name": "getMiningTarget",
      "outputs": [
        {
          "internalType": "uint256",
          "name": "",
          "type": "uint256"
        }
      ],
      "stateMutability": "view",
      "type": "function"
    },
    {
      "inputs": [
        {
          "internalType": "address",
          "name": "",
          "type": "address"
        }
      ],
      "name": "lastFaucetClaim",
      "outputs": [
        {
          "internalType": "uint256",
          "name": "",
          "type": "uint256"
        }
      ],
      "stateMutability": "view",
      "type": "function"
    },
    {
      "inputs": [],
      "name": "lastRewardAmount",
      "outputs": [
        {
          "internalType": "uint256",
          "name": "",
          "type": "uint256"
        }
      ],
      "stateMutability": "view",
      "type": "function"
    },
    {
      "inputs": [],
      "name": "lastRewardEthBlockNumber",
      "outputs": [
        {
          "internalType": "uint256",
          "name": "",
          "type": "uint256"
        }
      ],
      "stateMutability": "view",
      "type": "function"
    },
    {
      "inputs": [],
      "name": "lastRewardTo",
      "outputs": [
        {
          "internalType": "address",
          "name": "",
          "type": "address"
        }
      ],
      "stateMutability": "view",
      "type": "function"
    },
    {
      "inputs": [],
      "name": "latestDifficultyPeriodStarted",
      "outputs": [
        {
          "internalType": "uint256",
          "name": "",
          "type": "uint256"
        }
      ],
      "stateMutability": "view",
      "type": "function"
    },
    {
      "inputs": [
        {
          "internalType": "address",
          "name": "token",
          "type": "address"
        }
      ],
      "name": "maxFlashLoan",
      "outputs": [
        {
          "internalType": "uint256",
          "name": "",
          "type": "uint256"
        }
      ],
      "stateMutability": "view",
      "type": "function"
    },
    {
      "inputs": [],
      "name": "minedSupply",
      "outputs": [
        {
          "internalType": "uint256",
          "name": "",
          "type": "uint256"
        }
      ],
      "stateMutability": "view",
      "type": "function"
    },
    {
      "inputs": [],
      "name": "miningStartTimestamp",
      "outputs": [
        {
          "internalType": "uint256",
          "name": "",
          "type": "uint256"
        }
      ],
      "stateMutability": "view",
      "type": "function"
    },
    {
      "inputs": [],
      "name": "miningTarget",
      "outputs": [
        {
          "internalType": "uint256",
          "name": "",
          "type": "uint256"
        }
      ],
      "stateMutability": "view",
      "type": "function"
    },
    {
      "inputs": [
        {
          "internalType": "uint256",
          "name": "nonce",
          "type": "uint256"
        },
        {
          "internalType": "bytes32",
          "name": "",
          "type": "bytes32"
        }
      ],
      "name": "mint",
      "outputs": [
        {
          "internalType": "bool",
          "name": "success",
          "type": "bool"
        }
      ],
      "stateMutability": "nonpayable",
      "type": "function"
    },
    {
      "inputs": [
        {
          "internalType": "uint256",
          "name": "nonce",
          "type": "uint256"
        },
        {
          "internalType": "address",
          "name": "minter",
          "type": "address"
        }
      ],
      "name": "mintTo",
      "outputs": [
        {
          "internalType": "bool",
          "name": "success",
          "type": "bool"
        }
      ],
      "stateMutability": "nonpayable",
      "type": "function"
    },
    {
      "inputs": [],
      "name": "name",
      "outputs": [
        {
          "internalType": "string",
          "name": "",
          "type": "string"
        }
      ],
      "stateMutability": "view",
      "type": "function"
    },
    {
      "inputs": [],
      "name": "nextHalvingTime",
      "outputs": [
        {
          "internalType": "uint256",
          "name": "",
          "type": "uint256"
        }
      ],
      "stateMutability": "view",
      "type": "function"
    },
    {
      "inputs": [
        {
          "internalType": "address",
          "name": "owner",
          "type": "address"
        }
      ],
      "name": "nonces",
      "outputs": [
        {
          "internalType": "uint256",
          "name": "",
          "type": "uint256"
        }
      ],
      "stateMutability": "view",
      "type": "function"
    },
    {
      "inputs": [
        {
          "internalType": "address",
          "name": "owner",
          "type": "address"
        },
        {
          "internalType": "address",
          "name": "spender",
          "type": "address"
        },
        {
          "internalType": "uint256",
          "name": "value",
          "type": "uint256"
        },
        {
          "internalType": "uint256",
          "name": "deadline",
          "type": "uint256"
        },
        {
          "internalType": "uint8",
          "name": "v",
          "type": "uint8"
        },
        {
          "internalType": "bytes32",
          "name": "r",
          "type": "bytes32"
        },
        {
          "internalType": "bytes32",
          "name": "s",
          "type": "bytes32"
        }
      ],
      "name": "permit",
      "outputs": [],
      "stateMutability": "nonpayable",
      "type": "function"
    },
    {
      "inputs": [
        {
          "internalType": "uint16",
          "name": "targetChain",
          "type": "uint16"
        }
      ],
      "name": "quoteWormholeCrossChainCost",
      "outputs": [
        {
          "internalType": "uint256",
          "name": "cost",
          "type": "uint256"
        }
      ],
      "stateMutability": "view",
      "type": "function"
    },
    {
      "inputs": [
        {
          "internalType": "bytes",
          "name": "payload",
          "type": "bytes"
        },
        {
          "internalType": "bytes[]",
          "name": "",
          "type": "bytes[]"
        },
        {
          "internalType": "bytes32",
          "name": "sourceAddress",
          "type": "bytes32"
        },
        {
          "internalType": "uint16",
          "name": "sourceChain",
          "type": "uint16"
        },
        {
          "internalType": "bytes32",
          "name": "",
          "type": "bytes32"
        }
      ],
      "name": "receiveWormholeMessages",
      "outputs": [],
      "stateMutability": "payable",
      "type": "function"
    },
    {
      "inputs": [],
      "name": "rewardEra",
      "outputs": [
        {
          "internalType": "uint256",
          "name": "",
          "type": "uint256"
        }
      ],
      "stateMutability": "view",
      "type": "function"
    },
    {
      "inputs": [
        {
          "internalType": "uint16",
          "name": "targetChain",
          "type": "uint16"
        },
        {
          "internalType": "uint256",
          "name": "amount",
          "type": "uint256"
        }
      ],
      "name": "sendWormholeCrossChainBridge",
      "outputs": [],
      "stateMutability": "payable",
      "type": "function"
    },
    {
      "inputs": [],
      "name": "symbol",
      "outputs": [
        {
          "internalType": "string",
          "name": "",
          "type": "string"
        }
      ],
      "stateMutability": "view",
      "type": "function"
    },
    {
      "inputs": [],
      "name": "tokensMinted",
      "outputs": [
        {
          "internalType": "uint256",
          "name": "",
          "type": "uint256"
        }
      ],
      "stateMutability": "view",
      "type": "function"
    },
    {
      "inputs": [],
      "name": "totalSupply",
      "outputs": [
        {
          "internalType": "uint256",
          "name": "",
          "type": "uint256"
        }
      ],
      "stateMutability": "view",
      "type": "function"
    },
    {
      "inputs": [
        {
          "internalType": "address",
          "name": "to",
          "type": "address"
        },
        {
          "internalType": "uint256",
          "name": "value",
          "type": "uint256"
        }
      ],
      "name": "transfer",
      "outputs": [
        {
          "internalType": "bool",
          "name": "",
          "type": "bool"
        }
      ],
      "stateMutability": "nonpayable",
      "type": "function"
    },
    {
      "inputs": [
        {
          "internalType": "address",
          "name": "from",
          "type": "address"
        },
        {
          "internalType": "address",
          "name": "to",
          "type": "address"
        },
        {
          "internalType": "uint256",
          "name": "value",
          "type": "uint256"
        }
      ],
      "name": "transferFrom",
      "outputs": [
        {
          "internalType": "bool",
          "name": "",
          "type": "bool"
        }
      ],
      "stateMutability": "nonpayable",
      "type": "function"
    },
    {
      "inputs": [],
      "name": "wormholeRelayer",
      "outputs": [
        {
          "internalType": "contract IWormholeRelayer",
          "name": "",
          "type": "address"
        }
      ],
      "stateMutability": "view",
      "type": "function"
    },
    {
      "stateMutability": "payable",
      "type": "receive"
    }
  ],
  "bytecode": "0x61016060405234801561001157600080fd5b5060405180604001604052806012815260200171109c9bd8d8dbdb1a48155b98da185a5b995960721b81525080604051806040016040528060018152602001603160f81b81525060405180604001604052806012815260200171109c9bd8d8dbdb1a48155b98da185a5b995960721b8152506040518060400160405280600581526020016442524f435560d81b81525081600390816100b091906104d4565b5060046100bd82826104d4565b506100cd915083905060056103bb565b610120526100dc8160066103bb565b61014052815160208084019190912060e052815190820120610100524660a05261016960e05161010051604080517f8b73c3c69bb8fe3d512ecc4cf759cc79239f7b179b0ffacaa9a75d522b39400f60208201529081019290925260608201524660808201523060a082015260009060c00160405160208183030381529060405280519060200120905090565b60805250503060c052506000600e819055600c556101896012600a61068f565b610195906103806106a5565b600d556101a46012600a61068f565b6101af9060076106a5565b60145562015180601555600160ea1b600a554360088190556101d3906001906106bc565b40600b557f3f11dd7f7d4c592e8f25c1295cf7e956c481c69b0baba359fb226d89abcaa0f2805460ff1990811660019081179092557f0a8934632a3df8fed3f005a75c3aec51e183a8170cacbd5e00c2df4adf38894a80548216831790557fdf30605f166c0132f44e4b020725a0488a65afc899bc02f721b14366d10a01c280548216831790557f11806663d7c5607b626c27a24f86cda4459ae540248b7a5578f7928743d2bbe08054909116909117905560176020527f0f01b8f5906b446c4064d973f7867371acfd5d01a95de61a91249145ea982e6d80546001600160a01b0319908116737b1bd7a6b4e61c2a123ac6bc2cbfc614437d0470179091557ffd4db9c961abf4266bd514d025e811f68b559d89dcd9d967e929feea5e2e57af805482167393bad53ddfb6132b0ac8e37f6029163e63372cee9081179091557fab1fd3b66dd1e8ee024e6e03a633ffb84a75ca98c89e811f97d8db2985e1a1068054831690911790557ffc005fa084dc75105d59b77460529cde2b8bc092a25dd672cd8c3c7981c3d4d5805482167380ac94316391752a193c1c47e27d382b507c93f31790554660009081526040902054601880549092166001600160a01b03919091161790556367bab96060198190556103b390630114db00906106cf565b600f55610754565b60006020835110156103d7576103d0836103ee565b90506103e8565b816103e284826104d4565b5060ff90505b92915050565b600080829050601f81511115610422578260405163305a27a960e01b815260040161041991906106e2565b60405180910390fd5b805161042d82610730565b179392505050565b634e487b7160e01b600052604160045260246000fd5b600181811c9082168061045f57607f821691505b60208210810361047f57634e487b7160e01b600052602260045260246000fd5b50919050565b601f8211156104cf57806000526020600020601f840160051c810160208510156104ac5750805b601f840160051c820191505b818110156104cc57600081556001016104b8565b50505b505050565b81516001600160401b038111156104ed576104ed610435565b610501816104fb845461044b565b84610485565b6020601f821160018114610535576000831561051d5750848201515b600019600385901b1c1916600184901b1784556104cc565b600084815260208120601f198516915b828110156105655787850151825560209485019460019092019101610545565b50848210156105835786840151600019600387901b60f8161c191681555b50505050600190811b01905550565b634e487b7160e01b600052601160045260246000fd5b6001815b60018411156105e3578085048111156105c7576105c7610592565b60018416156105d557908102905b60019390931c9280026105ac565b935093915050565b6000826105fa575060016103e8565b81610607575060006103e8565b816001811461061d576002811461062757610643565b60019150506103e8565b60ff84111561063857610638610592565b50506001821b6103e8565b5060208310610133831016604e8410600b8410161715610666575081810a6103e8565b61067360001984846105a8565b806000190482111561068757610687610592565b029392505050565b600061069e60ff8416836105eb565b9392505050565b80820281158282048414176103e8576103e8610592565b818103818111156103e8576103e8610592565b808201808211156103e8576103e8610592565b602081526000825180602084015260005b8181101561071057602081860181015160408684010152016106f3565b506000604082850101526040601f19601f83011684010191505092915050565b8051602080830151919081101561047f5760001960209190910360031b1b16919050565b60805160a05160c05160e0516101005161012051610140516128af6107ae60003960006116e0015260006116b301526000611625015260006115fd0152600061155801526000611582015260006115ac01526128af6000f3fe6080604052600436106102cd5760003560e01c806370a0823111610175578063a9059cbb116100dc578063cb9ae70711610095578063d9d98ce41161006f578063d9d98ce41461083f578063da25b7251461085f578063dc6e9cf91461087f578063dd62ed3e1461089657600080fd5b8063cb9ae707146107f3578063d505accf14610809578063d8f812f01461082957600080fd5b8063a9059cbb1461075e578063aa56c1df1461077e578063b5ade81b14610791578063b723b34e146107a7578063bafedcaa146107c7578063caa7a158146107dd57600080fd5b806387a2a9d61161012e57806387a2a9d6146106c25780638a769d35146106da5780638a877205146106f05780638ae0368b1461071d57806395d89b41146107335780639c2814301461074857600080fd5b806370a08231146105f857806379cc67901461062e5780637e36320b1461064e5780637ecebe0014610664578063829965cc1461068457806384b0196e1461069a57600080fd5b80632d38bf7a116102345780634ef37628116101ed578063613255ab116101c7578063613255ab146105755780636386d2ac146105955780636de9f32b146105aa5780636fd396d6146105c057600080fd5b80634ef376281461052d578063529dca32146105425780635cffe9de1461055557600080fd5b80632d38bf7a14610497578063313ce567146104ad57806332e99708146104c95780633644e515146104de5780633adde9c1146104f357806342966c681461050b57600080fd5b80631801fbe5116102865780631801fbe5146103dc57806318160ddd146103fc5780631eaf8b4b1461041157806323b872dd1461043157806326f3eb3c14610451578063294867b91461048157600080fd5b806306fdde031461031d578063095ea7b314610348578063114cccd21461037857806313eda8fc1461039c578063163aa00d146103b157806317da485f146103c757600080fd5b366103185760405162461bcd60e51b81526020600482015260166024820152754e6f2064697265637420455448206465706f7369747360501b60448201526064015b60405180910390fd5b600080fd5b34801561032957600080fd5b506103326108dc565b60405161033f919061201d565b60405180910390f35b34801561035457600080fd5b50610368610363366004612045565b61096e565b604051901515815260200161033f565b34801561038457600080fd5b5061038e60001981565b60405190815260200161033f565b3480156103a857600080fd5b50610368610988565b3480156103bd57600080fd5b5061038e60125481565b3480156103d357600080fd5b5061038e610a19565b3480156103e857600080fd5b506103686103f7366004612071565b610a32565b34801561040857600080fd5b5060025461038e565b34801561041d57600080fd5b5061038e61042c3660046120aa565b610aed565b34801561043d57600080fd5b5061036861044c3660046120c5565b610b74565b34801561045d57600080fd5b5061036861046c366004612106565b60166020526000908152604090205460ff1681565b34801561048d57600080fd5b5061038e600f5481565b3480156104a357600080fd5b5061038e600c5481565b3480156104b957600080fd5b506040516012815260200161033f565b3480156104d557600080fd5b50600a5461038e565b3480156104ea57600080fd5b5061038e610b98565b3480156104ff57600080fd5b5061038e630114db0081565b34801561051757600080fd5b5061052b610526366004612106565b610ba2565b005b34801561053957600080fd5b50600b5461038e565b61052b6105503660046121d6565b610baf565b34801561056157600080fd5b506103686105703660046122f7565b610ce5565b34801561058157600080fd5b5061038e610590366004612398565b610e5d565b3480156105a157600080fd5b50600e5461038e565b3480156105b657600080fd5b5061038e600e5481565b3480156105cc57600080fd5b506010546105e0906001600160a01b031681565b6040516001600160a01b03909116815260200161033f565b34801561060457600080fd5b5061038e610613366004612398565b6001600160a01b031660009081526020819052604090205490565b34801561063a57600080fd5b5061052b610649366004612045565b610e85565b34801561065a57600080fd5b5061038e60155481565b34801561067057600080fd5b5061038e61067f366004612398565b610e9e565b34801561069057600080fd5b5061038e60095481565b3480156106a657600080fd5b506106af610ebc565b60405161033f97969594939291906123b5565b3480156106ce57600080fd5b5061038e600160ea1b81565b3480156106e657600080fd5b5061038e600a5481565b3480156106fc57600080fd5b5061038e61070b366004612398565b60136020526000908152604090205481565b34801561072957600080fd5b5061038e600b5481565b34801561073f57600080fd5b50610332610f02565b34801561075457600080fd5b5061038e60145481565b34801561076a57600080fd5b50610368610779366004612045565b610f11565b61052b61078c36600461244d565b610f1f565b34801561079d57600080fd5b5061038e61040081565b3480156107b357600080fd5b506103686107c2366004612469565b611043565b3480156107d357600080fd5b5061038e60115481565b3480156107e957600080fd5b5061038e600d5481565b3480156107ff57600080fd5b5061038e60085481565b34801561081557600080fd5b5061052b610824366004612499565b6112ac565b34801561083557600080fd5b5061038e60195481565b34801561084b57600080fd5b5061038e61085a366004612045565b6113e6565b34801561086b57600080fd5b506018546105e0906001600160a01b031681565b34801561088b57600080fd5b5061038e6201000081565b3480156108a257600080fd5b5061038e6108b1366004612510565b6001600160a01b03918216600090815260016020908152604080832093909416825291909152205490565b6060600380546108eb9061253e565b80601f01602080910402602001604051908101604052809291908181526020018280546109179061253e565b80156109645780601f1061093957610100808354040283529160200191610964565b820191906000526020600020905b81548152906001019060200180831161094757829003601f168201915b5050505050905090565b60003361097c818585611426565b60019150505b92915050565b6015543360009081526013602052604081205490916109a69161258e565b4210156109f55760405162461bcd60e51b815260206004820152601f60248201527f4661756365743a20636f6f6c646f776e20706572696f64206e6f74206d657400604482015260640161030f565b610a0133601454611438565b50336000908152601360205260409020429055600190565b6000600a54600160ea1b610a2d91906125b7565b905090565b4660009081526016602052604081205460ff16610a915760405162461bcd60e51b815260206004820181905260248201527f4d696e696e67206e6f7420616c6c6f776564206f6e207468697320636861696e604482015260640161030f565b601954421015610adc5760405162461bcd60e51b8152602060048201526016602482015275135a5b9a5b99c81b9bdd081cdd185c9d1959081e595d60521b604482015260640161030f565b610ae68333611043565b9392505050565b60185460405163c23ee3c360e01b815261ffff83166004820152600060248201819052620186a06044830152916001600160a01b03169063c23ee3c3906064016040805180830381865afa158015610b49573d6000803e3d6000fd5b505050506040513d601f19601f82011682018060405250810190610b6d91906125cb565b5092915050565b600033610b8285828561146e565b610b8d8585856114ec565b506001949350505050565b6000610a2d61154b565b610bac3382611676565b50565b82308114610bf75760405162461bcd60e51b81526020600482015260156024820152742737ba103932b3b4b9ba32b932b21039b2b73232b960591b604482015260640161030f565b6018546001600160a01b03163314610c6a5760405162461bcd60e51b815260206004820152603060248201527f4f6e6c792074686520576f726d686f6c652072656c617965722063616e20636160448201526f3636103a3434b990333ab731ba34b7b760811b606482015260840161030f565b60008087806020019051810190610c8191906125ef565b9092509050610c908183611438565b604080518381526001600160a01b038316602082015261ffff87168183015290517f02f882dcf6297baca7a2338fb6ce8c47c9dabd2e68a1a3442db78850ce6bb21f9181900360600190a15050505050505050565b600080610cf186610e5d565b905080851115610d175760405163fd9a760960e01b81526004810182905260240161030f565b6000610d2387876113e6565b9050610d2f8887611438565b6040516323e30c8b60e01b81527f439148f0bbc682ca079e46d6e2c2f0c1e3b820f1a291b069d8882abf8cf18dd9906001600160a01b038a16906323e30c8b90610d879033908c908c9088908d908d90600401612615565b6020604051808303816000875af1158015610da6573d6000803e3d6000fd5b505050506040513d601f19601f82011682018060405250810190610dca919061266e565b14610df25760405162678c5b60e81b81526001600160a01b038916600482015260240161030f565b6000610e088930610e03858b61258e565b61146e565b811580610e1c57506001600160a01b038116155b15610e3957610e3489610e2f848a61258e565b611676565b610e4e565b610e438988611676565b610e4e8982846114ec565b50600198975050505050505050565b60006001600160a01b0382163014610e76576000610982565b60025461098290600019612687565b610e9082338361146e565b610e9a8282611676565b5050565b6001600160a01b038116600090815260076020526040812054610982565b600060608060008060006060610ed06116ac565b610ed86116d9565b60408051600080825260208201909252600f60f81b9b939a50919850469750309650945092509050565b6060600480546108eb9061253e565b60003361097c8185856114ec565b6000610f2a83610aed565b90503334821115610f915760405162461bcd60e51b815260206004820152602b60248201527f496e73756666696369656e742066756e647320666f722063726f73732d63686160448201526a696e2064656c697665727960a81b606482015260840161030f565b610f9b8184611676565b60185460408051602081018690526001600160a01b038481168284015282518083038401815260608301938490526347f66e8160e11b90935290921691638fecdd02918591610ff9918991309190600090620186a09060640161269a565b60206040518083038185885af1158015611017573d6000803e3d6000fd5b50505050506040513d601f19601f8201168201806040525081019061103c91906126dc565b5050505050565b4660009081526016602052604081205460ff166110a25760405162461bcd60e51b815260206004820181905260248201527f4d696e696e67206e6f7420616c6c6f776564206f6e207468697320636861696e604482015260640161030f565b6019544210156110ed5760405162461bcd60e51b8152602060048201526016602482015275135a5b9a5b99c81b9bdd081cdd185c9d1959081e595d60521b604482015260640161030f565b600d546110fc90600019612687565b600d5460025461110c919061258e565b10156112a457600b5460408051602080820193909352606085901b6bffffffffffffffffffffffff19168183015260548082018790528251808303909101815260749091019091528051910120600a548111156111a35760405162461bcd60e51b8152602060048201526015602482015274111a59d95cdd08195e18d959591cc81d185c99d95d605a1b604482015260640161030f565b43601254036111f45760405162461bcd60e51b815260206004820152601e60248201527f416c726561647920726577617264656420696e207468697320626c6f636b0000604482015260640161030f565b61120083600d54611438565b600d54600e6000828254611214919061258e565b9091555050601080546001600160a01b0319166001600160a01b038516179055600d5460115543601255611246611706565b600d54600954600b54604080519384526020840192909252908201526001600160a01b038416907fcf6fbb9dcea7d07263ab4f5c3a92f53af33dffc421d9d121e1c74b307e68189d9060600160405180910390a26001915050610982565b506000610982565b834211156112d05760405163313c898160e11b81526004810185905260240161030f565b60007f6e71edae12b1b97f4d1f60370fef10105fa2faae0126114a169c64845d6126c988888861131d8c6001600160a01b0316600090815260076020526040902080546001810190915590565b6040805160208101969096526001600160a01b0394851690860152929091166060840152608083015260a082015260c0810186905260e0016040516020818303038152906040528051906020012090506000611378826118dd565b905060006113888287878761190a565b9050896001600160a01b0316816001600160a01b0316146113cf576040516325c0072360e11b81526001600160a01b0380831660048301528b16602482015260440161030f565b6113da8a8a8a611426565b50505050505050505050565b60006001600160a01b038316301461141c57604051635ad3edc960e11b81526001600160a01b038416600482015260240161030f565b610ae68383611938565b61143383838360016119c4565b505050565b6001600160a01b0382166114625760405163ec442f0560e01b81526000600482015260240161030f565b610e9a60008383611a99565b6001600160a01b0383811660009081526001602090815260408083209386168352929052205460001981146114e657818110156114d757604051637dc7a0d960e11b81526001600160a01b0384166004820152602481018290526044810183905260640161030f565b6114e6848484840360006119c4565b50505050565b6001600160a01b03831661151657604051634b637e8f60e11b81526000600482015260240161030f565b6001600160a01b0382166115405760405163ec442f0560e01b81526000600482015260240161030f565b611433838383611a99565b6000306001600160a01b037f0000000000000000000000000000000000000000000000000000000000000000161480156115a457507f000000000000000000000000000000000000000000000000000000000000000046145b156115ce57507f000000000000000000000000000000000000000000000000000000000000000090565b610a2d604080517f8b73c3c69bb8fe3d512ecc4cf759cc79239f7b179b0ffacaa9a75d522b39400f60208201527f0000000000000000000000000000000000000000000000000000000000000000918101919091527f000000000000000000000000000000000000000000000000000000000000000060608201524660808201523060a082015260009060c00160405160208183030381529060405280519060200120905090565b6001600160a01b0382166116a057604051634b637e8f60e11b81526000600482015260240161030f565b610e9a82600083611a99565b6060610a2d7f00000000000000000000000000000000000000000000000000000000000000006005611bc3565b6060610a2d7f00000000000000000000000000000000000000000000000000000000000000006006611bc3565b600f54421015801561171a57506019544210155b1561182a57600c805490600061172f83612706565b91905055506000600c5460026117459190612806565b6117516012600a612812565b61175d90610380612821565b61176791906125b7565b90506117756012600a612812565b611780906007612821565b8110156117c257600c805490600061179783612838565b91905055506117a4601290565b6117af90600a612812565b6117ba906007612821565b600d556117c8565b600d8190555b630114db00600f60008282546117de919061258e565b9091555050600d54600c546040517f3efe2b1ade87153c913a322f09a35c930d7fd699770b8d7cdd294e1debf6e9e49261182092908252602082015260400190565b60405180910390a1505b6000196009541061183f576000600955611855565b6009805490600061184f83612706565b91905055505b610400600954611865919061284f565b6000036118895760006008544361187c9190612687565b905061188781611c6e565b505b611894600143612687565b40600b8190556009546040517fd55a127469a90026709eb7e8f26aa1c8458a202c071f385af1989f3217d39183926118d3928252602082015260400190565b60405180910390a1565b60006109826118ea61154b565b8360405161190160f01b8152600281019290925260228201526042902090565b60008060008061191c88888888611dd2565b92509250925061192c8282611ea1565b50909695505050505050565b60006001600160a01b038316301461199c5760405162461bcd60e51b815260206004820152602160248201527f4552433230466c6173684d696e743a20556e737570706f7274656420746f6b656044820152603760f91b606482015260840161030f565b61271082116119ac576001610ae6565b6127106119ba600184612821565b610ae691906125b7565b6001600160a01b0384166119ee5760405163e602df0560e01b81526000600482015260240161030f565b6001600160a01b038316611a1857604051634a1406b160e11b81526000600482015260240161030f565b6001600160a01b03808516600090815260016020908152604080832093871683529290522082905580156114e657826001600160a01b0316846001600160a01b03167f8c5be1e5ebec7d5bd14f71427d1e84f3dd0314c0f7b2291e5b200ac8c7c3b92584604051611a8b91815260200190565b60405180910390a350505050565b6001600160a01b038316611ac4578060026000828254611ab9919061258e565b90915550611b369050565b6001600160a01b03831660009081526020819052604090205481811015611b175760405163391434e360e21b81526001600160a01b0385166004820152602481018290526044810183905260640161030f565b6001600160a01b03841660009081526020819052604090209082900390555b6001600160a01b038216611b5257600280548290039055611b71565b6001600160a01b03821660009081526020819052604090208054820190555b816001600160a01b0316836001600160a01b03167fddf252ad1be2c89b69c2b068fc378daa952ba7f163c4a11628f55a4df523b3ef83604051611bb691815260200190565b60405180910390a3505050565b606060ff8314611bdd57611bd683611f5a565b9050610982565b818054611be99061253e565b80601f0160208091040260200160405190810160405280929190818152602001828054611c159061253e565b8015611c625780601f10611c3757610100808354040283529160200191611c62565b820191906000526020600020905b815481529060010190602001808311611c4557829003601f168201915b50505050509050610982565b6000611c7d610400603c612821565b905080821015611cef57600082611c95836064612821565b611c9f91906125b7565b90506000611cba6103e8611cb4606485612687565b90611f99565b9050806107d0600a54611ccd91906125b7565b611cd79190612821565b600a54611ce49190612687565b600a5550611d4c9050565b600081611cfd846064612821565b611d0791906125b7565b90506000611d1c6103e8611cb4606485612687565b9050806107d0600a54611d2f91906125b7565b611d399190612821565b600a54611d46919061258e565b600a5550505b43600855600a54620100001115611d655762010000600a555b600160ea1b600a541115611d7c57600160ea1b600a555b600a547f8354831842174c9eb4b9d1af2734d3e6d8a28b0bd7dd4dca155e5a66134b658590611daf81600160ea1b6125b7565b604080519283526020830191909152810184905260600160405180910390a15050565b600080807f7fffffffffffffffffffffffffffffff5d576e7357a4501ddfe92f46681b20a0841115611e0d5750600091506003905082611e97565b604080516000808252602082018084528a905260ff891692820192909252606081018790526080810186905260019060a0016020604051602081039080840390855afa158015611e61573d6000803e3d6000fd5b5050604051601f1901519150506001600160a01b038116611e8d57506000925060019150829050611e97565b9250600091508190505b9450945094915050565b6000826003811115611eb557611eb5612863565b03611ebe575050565b6001826003811115611ed257611ed2612863565b03611ef05760405163f645eedf60e01b815260040160405180910390fd5b6002826003811115611f0457611f04612863565b03611f255760405163fce698f760e01b81526004810182905260240161030f565b6003826003811115611f3957611f39612863565b03610e9a576040516335e2f38360e21b81526004810182905260240161030f565b60606000611f6783611faf565b604080516020808252818301909252919250600091906020820181803683375050509182525060208101929092525090565b6000818310611fa85781610ae6565b5090919050565b600060ff8216601f81111561098257604051632cd44ac360e21b815260040160405180910390fd5b6000815180845260005b81811015611ffd57602081850181015186830182015201611fe1565b506000602082860101526020601f19601f83011685010191505092915050565b602081526000610ae66020830184611fd7565b6001600160a01b0381168114610bac57600080fd5b6000806040838503121561205857600080fd5b823561206381612030565b946020939093013593505050565b6000806040838503121561208457600080fd5b50508035926020909101359150565b803561ffff811681146120a557600080fd5b919050565b6000602082840312156120bc57600080fd5b610ae682612093565b6000806000606084860312156120da57600080fd5b83356120e581612030565b925060208401356120f581612030565b929592945050506040919091013590565b60006020828403121561211857600080fd5b5035919050565b634e487b7160e01b600052604160045260246000fd5b604051601f8201601f1916810167ffffffffffffffff8111828210171561215e5761215e61211f565b604052919050565b600082601f83011261217757600080fd5b813567ffffffffffffffff8111156121915761219161211f565b6121a4601f8201601f1916602001612135565b8181528460208386010111156121b957600080fd5b816020850160208301376000918101602001919091529392505050565b600080600080600060a086880312156121ee57600080fd5b853567ffffffffffffffff81111561220557600080fd5b61221188828901612166565b955050602086013567ffffffffffffffff81111561222e57600080fd5b8601601f8101881361223f57600080fd5b803567ffffffffffffffff8111156122595761225961211f565b8060051b61226960208201612135565b9182526020818401810192908101908b84111561228557600080fd5b6020850192505b838310156122cc57823567ffffffffffffffff8111156122ab57600080fd5b6122ba8d602083890101612166565b8352506020928301929091019061228c565b9750505050604087013593506122e6905060608701612093565b949793965091946080013592915050565b60008060008060006080868803121561230f57600080fd5b853561231a81612030565b9450602086013561232a81612030565b935060408601359250606086013567ffffffffffffffff81111561234d57600080fd5b8601601f8101881361235e57600080fd5b803567ffffffffffffffff81111561237557600080fd5b88602082840101111561238757600080fd5b959894975092955050506020019190565b6000602082840312156123aa57600080fd5b8135610ae681612030565b60ff60f81b8816815260e0602082015260006123d460e0830189611fd7565b82810360408401526123e68189611fd7565b606084018890526001600160a01b038716608085015260a0840186905283810360c08501528451808252602080870193509091019060005b8181101561243c57835183526020938401939092019160010161241e565b50909b9a5050505050505050505050565b6000806040838503121561246057600080fd5b61206383612093565b6000806040838503121561247c57600080fd5b82359150602083013561248e81612030565b809150509250929050565b600080600080600080600060e0888a0312156124b457600080fd5b87356124bf81612030565b965060208801356124cf81612030565b95506040880135945060608801359350608088013560ff811681146124f357600080fd5b9699959850939692959460a0840135945060c09093013592915050565b6000806040838503121561252357600080fd5b823561252e81612030565b9150602083013561248e81612030565b600181811c9082168061255257607f821691505b60208210810361257257634e487b7160e01b600052602260045260246000fd5b50919050565b634e487b7160e01b600052601160045260246000fd5b8082018082111561098257610982612578565b634e487b7160e01b600052601260045260246000fd5b6000826125c6576125c66125a1565b500490565b600080604083850312156125de57600080fd5b505080516020909101519092909150565b6000806040838503121561260257600080fd5b8251602084015190925061248e81612030565b6001600160a01b03878116825286166020820152604081018590526060810184905260a0608082018190528101829052818360c0830137600081830160c090810191909152601f909201601f1916010195945050505050565b60006020828403121561268057600080fd5b5051919050565b8181038181111561098257610982612578565b61ffff861681526001600160a01b038516602082015260a0604082018190526000906126c890830186611fd7565b606083019490945250608001529392505050565b6000602082840312156126ee57600080fd5b815167ffffffffffffffff81168114610ae657600080fd5b60006001820161271857612718612578565b5060010190565b6001815b600184111561275a5780850481111561273e5761273e612578565b600184161561274c57908102905b60019390931c928002612723565b935093915050565b60008261277157506001610982565b8161277e57506000610982565b8160018114612794576002811461279e576127ba565b6001915050610982565b60ff8411156127af576127af612578565b50506001821b610982565b5060208310610133831016604e8410600b84101617156127dd575081810a610982565b6127ea600019848461271f565b80600019048211156127fe576127fe612578565b029392505050565b6000610ae68383612762565b6000610ae660ff841683612762565b808202811582820484141761098257610982612578565b60008161284757612847612578565b506000190190565b60008261285e5761285e6125a1565b500690565b634e487b7160e01b600052602160045260246000fdfea2646970667358221220dcb47879fa0688e2c10cce2cca2faadf08b6b567e8c977a57a2fa86fd8f22aa164736f6c634300081c0033",
  "linkReferences": {},
  "deployedLinkReferences": {}
}